:020000040800F2
:1000000000500020051C0008511900085319000871
:100010005519000857190008591900080000000078
:100020000000000000000000000000005B19000854
:100030005D190008000000005F1900086119000840
:100040004D1C00084D1C00084D1C00084D1C0008EC
:100050004D1C00084D1C00084D1C00084D1C0008DC
:100060004D1C00084D1C00084D1C00084D1C0008CC
:100070004D1C00084D1C00084D1C00084D1C0008BC
:100080004D1C00084D1C00084D1C00084D1C0008AC
:100090004D1C00084D1C00084D1C00084D1C00089C
:1000A0006919000879190008891900084D1C000811
:1000B00099190008A91900084D1C00084D1C0008DA
:1000C0004D1C00084D1C00084D1C00084D1C00086C
:1000D0004D1C00084D1C00084D1C00084D1C00085C
:1000E0004D1C00084D1C00084D1C000800000000BD
:1000F0000000000000000000000000000000000000
:0C01000000000000000000005FF808F1A3
:1001100081F0004102E000BF83F0004330B54FEAB8
:1001200041044FEA430594EA050F08BF90EA020F25
:100130001FBF54EA000C55EA020C7FEA645C7FEAB8
:10014000655C00F0E2804FEA5454D4EB5555B8BFDB
:100150006D420CDD2C4480EA020281EA030382EA4C
:10016000000083EA010180EA020281EA0303362DDE
:1001700088BF30BD11F0004F4FEA01314FF4801CB1
:100180004CEA113102D0404261EB410113F0004FC3
:100190004FEA03334CEA133302D0524263EB43037A
:1001A00094EA050F00F0A780A4F10104D5F1200E18
:1001B0000DDB02FA0EFC22FA05F2801841F1000173
:1001C00003FA0EF2801843FA05F359410EE0A5F147
:1001D00020050EF1200E012A03FA0EFC28BF4CF078
:1001E000020C43FA05F3C01851EBE37101F000452E
:1001F00007D54FF0000EDCF1000C7EEB00006EEB3B
:100200000101B1F5801F1BD3B1F5001F0CD34908C4
:100210005FEA30004FEA3C0C04F101044FEA44521B
:1002200012F5800F80F09A80BCF1004F08BF5FEAA2
:10023000500C50F1000041EB045141EA050130BD82
:100240005FEA4C0C404141EB0101013C28BFB1F594
:10025000801FE9D291F0000F04BF01460020B1FADF
:1002600081F308BF2033A3F10B03B3F120020CDAB2
:100270000C3208DD02F1140CC2F10C0201FA0CF090
:1002800021FA02F10CE002F11402D8BFC2F1200CF5
:1002900001FA02F120FA0CFCDCBF41EA0C019040AB
:1002A000E41AA2BF01EB0451294330BD6FEA0404F4
:1002B0001F3C1CDA0C340EDC04F11404C4F12002DF
:1002C00020FA04F001FA02F340EA030021FA04F3F1
:1002D00045EA030130BDC4F10C04C4F1200220FA48
:1002E00002F001FA04F340EA0300294630BD21FA86
:1002F00004F0294630BD94F0000F83F4801306BF4C
:1003000081F480110134013D4EE77FEA645C18BF3F
:100310007FEA655C29D094EA050F08BF90EA020FD6
:1003200005D054EA000C04BF1946104630BD91EACE
:10033000030F1EBF0021002030BD5FEA545C05D1D1
:100340004000494128BF41F0004130BD14F5800410
:100350003CBF01F5801130BD01F0004545F0FE4184
:1003600041F470014FF0000030BD7FEA645C1ABFB9
:10037000194610467FEA655C1CBF0B46024650EAF0
:10038000013406BF52EA033591EA030F41F400211C
:1003900030BD00BF90F0000F04BF0021704730B5A2
:1003A0004FF4806404F132044FF000054FF0000177
:1003B00050E700BF90F0000F04BF0021704730B538
:1003C0004FF4806404F1320410F0004548BF40420D
:1003D0004FF000013EE700BF42004FEAE2014FEA62
:1003E00031014FEA02701FBF12F07F4393F07F4F3D
:1003F00081F06051704732F07F4208BF704793F040
:100400007F4F04BF41F40021704730B54FF4607452
:1004100001F0004521F000411CE700BF50EA010255
:1004200008BF704730B54FF000050AE050EA0102FE
:1004300008BF704730B511F0004502D5404261EB6E
:1004400041014FF4806404F132045FEA915C3FF4AF
:10045000D8AE4FF003025FEADC0C18BF03325FEA4C
:10046000DC0C18BF033202EBDC02C2F1200300FAFD
:1004700003FC20FA02F001FA03FE40EA0E0021FA22
:1004800002F11444BDE600BF70B54FF0FF0C4CF410
:10049000E06C1CEA11541DBF1CEA135594EA0C0FC2
:1004A00095EA0C0F00F0DEF82C4481EA030621EAFD
:1004B0004C5123EA4C5350EA013518BF52EA033538
:1004C00041F4801143F4801338D0A0FB02CE4FF0EA
:1004D0000005E1FB02E506F00042E0FB03E54FF01A
:1004E0000006E1FB03569CF0000F18BF4EF0010E12
:1004F000A4F1FF04B6F5007F64F5407404D25FEA0E
:100500004E0E6D4146EB060642EAC62141EA5551C0
:100510004FEAC52040EA5E504FEACE2EB4F1FD0C02
:1005200088BFBCF5E06F1ED8BEF1004F08BF5FEA80
:10053000500E50F1000041EB045170BD06F0004632
:1005400046EA010140EA020081EA0301B4EB5C04DF
:10055000C2BFD4EB0C0541EA045170BD41F48011D7
:100560004FF0000E013C00F3AB8014F1360FDEBFFC
:10057000002001F0004170BDC4F10004203C35DAD8
:100580000C341BDC04F11404C4F1200500FA05F35B
:1005900020FA04F001FA05F240EA020001F00042FC
:1005A00021F0004110EBD37021FA04F642EB060172
:1005B0005EEA430E08BF20EAD37070BDC4F10C049C
:1005C000C4F1200500FA04F320FA05F001FA04F260
:1005D00040EA020001F0004110EBD37041F100014C
:1005E0005EEA430E08BF20EAD37070BDC4F1200557
:1005F00000FA05F24EEA020E20FA04F301FA05F2BF
:1006000043EA020321FA04F001F0004121FA04F266
:1006100020EA020000EBD3705EEA430E08BF20EA36
:10062000D37070BD94F0000F0FD101F00046400070
:1006300041EB010111F4801F08BF013CF7D041EAF2
:10064000060195F0000F18BF704703F000465200F6
:1006500043EB030313F4801F08BF013DF7D043EAC7
:100660000603704794EA0C0F0CEA135518BF95EA7D
:100670000C0F0CD050EA410618BF52EA4306D1D104
:1006800081EA030101F000414FF0000070BD50EA23
:10069000410606BF1046194652EA430619D094EAAD
:1006A0000C0F02D150EA013613D195EA0C0F05D197
:1006B00052EA03361CBF104619460AD181EA0301EB
:1006C00001F0004141F0FE4141F470014FF00000A3
:1006D00070BD41F0FE4141F4780170BD70B54FF03E
:1006E000FF0C4CF4E06C1CEA11541DBF1CEA1355BE
:1006F00094EA0C0F95EA0C0F00F0A7F8A4EB0504A0
:1007000081EA030E52EA03354FEA013100F0888096
:100710004FEA03334FF0805545EA131343EA12635F
:100720004FEA022245EA111545EA10654FEA002614
:100730000EF000419D4208BF964244F1FD0404F5CD
:10074000407402D25B084FEA3202B61A65EB030529
:100750005B084FEA32024FF480104FF4002CB6EBE6
:10076000020E75EB030E22BFB61A754640EA0C0066
:100770005B084FEA3202B6EB020E75EB030E22BFA6
:10078000B61A754640EA5C005B084FEA3202B6EBE7
:10079000020E75EB030E22BFB61A754640EA9C00A6
:1007A0005B084FEA3202B6EB020E75EB030E22BF76
:1007B000B61A754640EADC0055EA060E18D04FEA34
:1007C000051545EA16754FEA06164FEAC30343EAD4
:1007D00052734FEAC2025FEA1C1CC0D111F4801FA1
:1007E0000BD141EA00014FF000004FF0004CB6E79A
:1007F00011F4801F04BF01430020B4F1FD0C88BF39
:10080000BCF5E06F3FF6AFAEB5EB030C04BFB6EB43
:10081000020C5FEA500C50F1000041EB045170BD36
:100820000EF0004E4EEA113114EB5C04C2BFD4EB63
:100830000C0541EA045170BD41F480114FF0000EE7
:10084000013C90E645EA060E8DE60CEA135594EA63
:100850000C0F08BF95EA0C0F3FF43BAF94EA0C0F66
:100860000AD150EA01347FF434AF95EA0C0F7FF4DB
:1008700025AF104619462CE795EA0C0F06D152EA2F
:1008800003353FF4FDAE1046194622E750EA410613
:1008900018BF52EA43067FF4C5AE50EA41047FF424
:1008A0000DAF52EA43057FF4EBAE12E74FEA410287
:1008B000B2F1E04324BFB3F5001CDCF1FE5C0DD9BE
:1008C00001F0004C4FEAC0024CEA5070B2F1004F08
:1008D00040EB830008BF20F00100704711F0804F0B
:1008E00021D113F13872BCBF01F00040704741F4D0
:1008F00080114FEA5252C2F11802C2F1200C10FAD4
:100900000CF320FA02F018BF40F001004FEAC123B7
:100910004FEAD32303FA0CFC40EA0C0023FA02F35B
:100920004FEA4303CCE77FEA625307D150EA013331
:100930001EBF4FF0FE4040F44000704701F0004001
:1009400040F0FE4040F40000704700BF80F00040DF
:1009500002E000BF81F0004142001FBF5FEA410397
:1009600092EA030F7FEA226C7FEA236C6AD04FEA97
:100970001262D2EB1363C1BFD218414048404140DC
:10098000B8BF5B42192B88BF704710F0004F40F48E
:10099000000020F07F4018BF404211F0004F41F4AA
:1009A000000121F07F4118BF494292EA030F3FD076
:1009B000A2F1010241FA03FC10EB0C00C3F1200389
:1009C00001FA03F100F0004302D5494260EB400018
:1009D000B0F5000F13D3B0F1807F06D340084FEA83
:1009E000310102F10102FE2A51D2B1F1004F40EB78
:1009F000C25008BF20F0010040EA030070474900E0
:100A000040EB0000013A28BFB0F5000FEDD2B0FA7C
:100A100080FCACF1080CB2EB0C0200FA0CF0AABF9F
:100A200000EBC25052421843BCBFD040184370473D
:100A300092F0000F81F4000106BF80F40000013243
:100A4000013BB5E74FEA41037FEA226C18BF7FEA1A
:100A5000236C21D092EA030F04D092F0000F08BF5C
:100A60000846704790EA010F1CBF0020704712F043
:100A70007F4F04D1400028BF40F00040704712F182
:100A800000723CBF00F50000704700F0004343F0E7
:100A9000FE4040F4000070477FEA226216BF08461D
:100AA0007FEA23630146420206BF5FEA412390EAE0
:100AB000010F40F4800070474FF0000304E000BFD6
:100AC00010F0004348BF40425FEA000C08BF704787
:100AD00043F0964301464FF000001CE050EA01024B
:100AE00008BF70474FF000030AE000BF50EA010260
:100AF00008BF704711F0004302D5404261EB41014D
:100B00005FEA010C02BF84460146002043F0B64371
:100B100008BFA3F18053A3F50003BCFA8CF2083A96
:100B2000A3EBC25310DB01FA02FC634400FA02FC9F
:100B3000C2F12002BCF1004F20FA02F243EB0200A6
:100B400008BF20F00100704702F1200201FA02FC08
:100B5000C2F1200250EA4C0021FA02F243EB0200FB
:100B600008BF20EADC7070474FF0FF0C1CEAD0523F
:100B70001EBF1CEAD15392EA0C0F93EA0C0F6FD000
:100B80001A4480EA010C400218BF5FEA41211ED0DE
:100B90004FF0006343EA501043EA5111A0FB0131CA
:100BA0000CF00040B1F5000F3EBF490041EAD3719F
:100BB0005B0040EA010062F17F02FD2A1DD8B3F11B
:100BC000004F40EBC25008BF20F00100704790F08A
:100BD000000F0CF0004C08BF49024CEA502040EADC
:100BE00051207F3AC2BFD2F1FF0340EAC2507047A2
:100BF00040F400004FF00003013A5DDC12F1190FE0
:100C0000DCBF00F000407047C2F10002410021FA51
:100C100002F1C2F1200200FA02FC5FEA310040F169
:100C2000000053EA4C0308BF20EADC70704792F0E2
:100C3000000F00F0004C02BF400010F4000F013A1A
:100C4000F9D040EA0C0093F0000F01F0004C02BF15
:100C5000490011F4000F013BF9D041EA0C018FE784
:100C60000CEAD15392EA0C0F18BF93EA0C0F0AD08A
:100C700030F0004C18BF31F0004CD8D180EA0100B0
:100C800000F00040704790F0000F17BF90F0004F49
:100C9000084691F0000F91F0004F14D092EA0C0F2B
:100CA00001D142020FD193EA0C0F03D14B0218BFBE
:100CB000084608D180EA010000F0004040F0FE4004
:100CC00040F40000704740F0FE4040F440007047A0
:100CD0004FF0FF0C1CEAD0521EBF1CEAD15392EA1F
:100CE0000C0F93EA0C0F69D0A2EB030280EA010C0F
:100CF00049024FEA402037D04FF0805343EA1111A8
:100D000043EA10130CF000408B4238BF5B0042F105
:100D10007D024FF4000C8B4224BF5B1A40EA0C00AA
:100D2000B3EB510F24BFA3EB510340EA5C00B3EBDC
:100D3000910F24BFA3EB910340EA9C00B3EBD10FCA
:100D400024BFA3EBD10340EADC001B0118BF5FEA1C
:100D50001C1CE0D1FD2A3FF650AF8B4240EBC25045
:100D600008BF20F0010070470CF0004C4CEA502006
:100D70007F32C2BFD2F1FF0340EAC250704740F455
:100D800000004FF00003013A37E792F0000F00F047
:100D9000004C02BF400010F4000F013AF9D040EAC5
:100DA0000C0093F0000F01F0004C02BF490011F459
:100DB000000F013BF9D041EA0C0195E70CEAD15351
:100DC00092EA0C0F08D142027FF47DAF93EA0C0F38
:100DD0007FF470AF084676E793EA0C0F04D14B021C
:100DE0003FF44CAF08466EE730F0004C18BF31F0CE
:100DF000004CCAD130F000427FF45CAF31F00043C8
:100E00007FF43CAF5FE700BF0348044B834202D04E
:100E1000034B03B11847704718000020180000204A
:100E2000000000000548064B1B1AD90F01EBA30177
:100E3000491002D0034B03B1184770471800002037
:100E4000180000200000000010B5064C237843B9BC
:100E5000FFF7DAFF044B13B10448AFF3008001231E
:100E6000237010BD1800002000000000D4380008D6
:100E700008B5054B1BB105490548AFF30080BDE837
:100E80000840FFF7CFBF00BF000000001C0000209B
:100E9000D438000810B5054C204601F04BFE04483C
:100EA00001F048FE236800225A6210BD8C00002029
:100EB000440000200E4B1B7803B1704710B50D485D
:100EC00003684FF434729A6240F2CF725A6201F0B2
:100ED0005FFE094C204601F0E7FD236800225A62BC
:100EE000204601F055FE024B01221A7010BD00BFD2
:100EF00038000020440000208C000020024A1378B3
:100F000001331370704700BF4000002008B5074947
:100F1000074B1868FFF71EFD01460648FFF7D8FE8D
:100F20000549FFF719FD054B186008BD007087459E
:100F30003C0000200038AEC60058E84634000020CF
:100F400038B5194B1B7803B938BD184C204601F051
:100F50006BFE204601F0EEFD154C204601F0EAFD47
:100F60002368586A0024134B18605C60124D2B787C
:100F7000C3EB0343D917C01841F10001FFF74EFA44
:100F800007A3D3E90023FFF7A9FBFFF78FFC0B4B67
:100F900018602C70FFF7BAFF034B1C70D4E700BF3A
:100FA0009A9999999999C93F3800002044000020E6
:100FB0008C00002000000020400000203C000020A9
:100FC00038B500224FF48051534801F005F94FF431
:100FD0008071524801F0ECF8002800F0988000245D
:100FE0004FF400714D4801F0E3F800B902244FF4CA
:100FF00080614A4801F0DCF800B903244FF4006135
:10100000464801F0D5F800B90424434D01224FF4BD
:101010008051284601F0E0F800224FF400512846A4
:1010200001F0DAF84FF480713C4801F0C1F800B9E2
:1010300005244FF40071394801F0BAF800B90624CC
:101040004FF48061354801F0B3F800B907244FF43C
:101050000061324801F0ACF800B908242E4D01229D
:101060004FF40051284601F0B7F800224FF48041B8
:10107000284601F0B1F84FF48071284801F098F843
:1010800000B909244FF40071244801F091F800B927
:101090000A244FF48061214801F08AF800B90B243A
:1010A0004FF400611D4801F083F800B90C241A4D7B
:1010B00001224FF48041284601F08EF800224FF4BF
:1010C0000041284601F088F84FF48071134801F080
:1010D0006FF800B90D244FF40071104801F068F862
:1010E00000B90E244FF480610C4801F061F800B99A
:1010F0000F244FF40061094801F05AF848B1012269
:101100004FF40041044801F067F8204638BD01243F
:1011100066E71024F3E700BF000C0140000801401F
:10112000014B1878704700BF4300002038B5444C8D
:10113000444D2B782370FFF743FF28702378012B51
:101140001ED0022B22D0032B26D0042B2AD0052B15
:101150002ED0062B32D0072B36D0082B3AD0092BB5
:101160003ED00A2B42D00B2B46D00C2B4AD00D2B55
:101170004ED00E2B52D00F2B56D0102B5AD038BD3C
:101180000028DED1304A01211170DAE70028DAD1D7
:101190002D4A02211170D6E70028D6D12A4A032110
:1011A0001170D2E70028D2D1274A04211170CEE76E
:1011B0000028CED1244A05211170CAE70028CAD1DF
:1011C000214A06211170C6E70028C6D11E4A072110
:1011D0001170C2E70028C2D11B4A08211170BEE776
:1011E0000028BED1184A09211170BAE70028BAD1E7
:1011F000154A0A211170B6E70028B6D1124A0B2110
:101200001170B2E70028B2D10F4A0C211170AEE77D
:101210000028AED10C4A0D211170AAE70028AAD1EE
:10122000094A0E211170A6E70028A6D1064A0F210F
:101230001170A2E70028A2D1034B10221A709EE77A
:1012400041000020420000204300002010B5044669
:1012500000F0E8F9782000F027FA00F00BFA4020BF
:1012600000F022FA00F006FA204600F01DFA00F025
:1012700001FA00F0EBF910BD10B5044600F0D2F908
:10128000782000F011FA00F0F5F9002000F00CFAD7
:1012900000F0F0F9204600F007FA00F0EBF900F05A
:1012A000D5F910BD08B5012902D0FFF7E5FF08BD4B
:1012B000FFF7CCFFFBE710B50446A1F15000002179
:1012C000C0B2FFF7EFFF2009002140F01000FFF748
:1012D000E9FF002104F00F00FFF7E4FF10BD00005C
:1012E000F8B507460E46203AD5B2102B05D0062B8E
:1012F00026D0FFF7E0FF00243FE0FFF7DCFF0024EB
:1013000008E004EB05130121284AD05CFFF7CAFF6F
:101310000134E4B2072CF4D9711CC9B23846FFF786
:10132000CAFF002409E004EB0513083301211F4A1A
:10133000D05CFFF7B7FF0134E4B2072CF3D933E0F8
:10134000FFF7B9FF00240AE005EB4502184B03EB59
:1013500042030121185DFFF7A5FF0134E4B2052C1B
:10136000F2D921E004EB0513104AD05CC0430121FF
:10137000C0B2FFF797FF0134E4B2072CF2D9711C19
:10138000C9B23846FFF797FF00240BE004EB0513C2
:101390000833064AD05CC0430121C0B2FFF782FF88
:1013A0000134E4B2072CF1D9F8BD00BFEC380008D5
:1013B000DC3E00082DE9F04104460E4617469846EB
:1013C000002501E00135EDB27A5D62B14346314658
:1013D0002046FFF785FF0834E4B2782CF2D90236B4
:1013E000F6B20024EEE7BDE8F0810246012002E0FB
:1013F00002FB00F019464B1EDBB20029F8D1704702
:101400002DE9F8438146884617461E469DF8205030
:1014100000241DE0680804FB00F0C0B20CF1300CA1
:1014200048442B465FFA8CF24146C0B2FFF758FFA2
:101430000CE005FB04F0C0B20CF1300C48442B4624
:101440005FFA8CF24146C0B2FFF74AFF0134E4B2C2
:10145000B44226D2311BC9B20139C9B20A20FFF702
:10146000C4FFB7FBF0F0104BA3FB003C4FEADC0CD1
:101470000CEB8C0CA0EB4C0C5FFA8CFC102DC9D043
:10148000062DD6D0680804FB00F0C0B20CF1300C79
:1014900048442B465FFA8CF24146C0B2FFF720FF6A
:1014A000D4E7BDE8F88300BFCDCCCCCC38B500255F
:1014B0000AE001210020FFF7F5FE0134E4B214F048
:1014C000800FF6D00135EDB2072D05D82946002052
:1014D000FFF7F1FE0024F2E738BD08B50021AE2089
:1014E000FFF7E0FE00210846FFF7DCFE0021102098
:1014F000FFF7D8FE00214020FFF7D4FE0021B020E6
:10150000FFF7D0FE00218120FFF7CCFE0021FF2055
:10151000FFF7C8FE0021A120FFF7C4FE0021C8206C
:10152000FFF7C0FE0021A620FFF7BCFE0021A82087
:10153000FFF7B8FE00213F20FFF7B4FE0021D320C3
:10154000FFF7B0FE00210846FFF7ACFE0021D520D2
:10155000FFF7A8FE00218020FFF7A4FE0021D8207D
:10156000FFF7A0FE00210520FFF79CFE0021D920F7
:10157000FFF798FE0021F120FFF794FE0021DA200A
:10158000FFF790FE00211220FFF78CFE0021DB20E8
:10159000FFF788FE00213020FFF784FE00218D2018
:1015A000FFF780FE00211420FFF77CFE0021AF2012
:1015B000FFF778FEFFF77AFF08BD2A2300BF1A461F
:1015C000013B002AFAD1704708B530B900224FF428
:1015D0008071054800F000FE08BD01224FF48071C3
:1015E000014800F0F9FDF7E7000C014008B530B9FB
:1015F00000224FF40071054800F0EEFD08BD012205
:101600004FF40071014800F0E7FDF7E7000C0140DE
:1016100008B54FF40071024800F0CAFD08BD00BFD4
:10162000000C014008B50120FFF7E0FF0120FFF7A3
:10163000CBFFFFF7C2FF0020FFF7D8FFFFF7BDFF8A
:101640000020FFF7C1FFFFF7B8FF08BD08B5002075
:10165000FFF7CCFF0020FFF7B7FFFFF7AEFF012039
:10166000FFF7B2FFFFF7A9FF0120FFF7BFFFFFF76A
:10167000A4FF08BD38B50120FFF7B8FF0120FFF730
:10168000A3FF0024FFF7C4FF054638B10134E4B2DC
:10169000FA2CF7D9FFF7DAFF012503E0FFF794FFF3
:1016A000FFF78BFF284638BD38B5044608220FE007
:1016B0000020FFF79BFF6400E4B2FFF77EFF0120EC
:1016C000FFF782FFFFF779FF0020FFF77DFF2A4633
:1016D000531EDDB232B114F0800FE9D00120FFF7C4
:1016E00085FFE8E738BD00002DE9F04188B000240F
:1016F0000494059406940794334B9A6942F01002BF
:101700009A619A6902F010020092009A9A6942F076
:1017100020029A619A6902F020020192019A9A6964
:1017200042F004029A619A6902F004020292029A5B
:101730009A6942F008029A619B6903F008030393D7
:10174000039BDFF8888022464FF40051404600F0AA
:1017500043FD1F4E22464FF47341304600F03CFDDE
:101760004FF400530493012505950694022707972B
:1017700004A9404600F06AFB4FF4704304930595BA
:101780000695079704A9304600F060FB4FF41F430D
:1017900004930594069504A90E4800F057FB08230E
:1017A00004930594069504A9304600F04FFB4FF4CE
:1017B0004073049305950694079704A9304600F0FA
:1017C00045FB08B0BDE8F081001002400010014068
:1017D000000C01400008014010B5044602680A4BA5
:1017E0009A4208D02368B3F1804F07D02268074B94
:1017F0009A4206D010BDFFF799FCF3E7FFF77EFB96
:10180000F4E7FFF79DFBF5E7002C014000040040E2
:1018100072B6FEE700B591B02822002106A801F0BB
:1018200079FF00230193029303930493059301220C
:1018300006924FF4803307930A9202220D920E9380
:101840004FF4E0130F9306A800F00EFD80B90F23AC
:10185000019302210291002303934FF480620492CA
:10186000059301A800F0DCFF20B911B05DF804FB7E
:10187000FFF7CEFFFFF7CCFFF0B583B0002500F0F7
:101880000DFAFFF7C7FFFFF72FFF00F097F800F002
:10189000CFF800F009F9194801F07AF9FFF71DFEB9
:1018A0001023174A29462846FFF784FDFFF7F2FA6E
:1018B0002E461CE04FF40051124800F0A9FCFFF73F
:1018C0002FFC0546741CE4B2102700970223324611
:1018D00004210020FFF794FD009702232A461946B1
:1018E0000020FFF78DFD642000F0FCF92646FFF78D
:1018F000E1FAFFF715FC0028DCD1E3E7D400002073
:1019000000410008001001407047000082B00E4BFB
:101910009A6942F001029A619A6902F0010200920A
:10192000009ADA6942F08052DA61DB6903F0805391
:101930000193019B054A536823F0E06343F0007371
:10194000536002B0704700BF001002400000014029
:10195000FEE7FEE7FEE7FEE7FEE7704770477047E9
:1019600008B500F0ADF908BD08B5024801F094F9DA
:1019700008BD00BFD400002008B5024801F08CF972
:1019800008BD00BFD400002008B5024801F084F96A
:1019900008BD00BFD400002008B5024801F07CF962
:1019A00008BD00BF8C00002008B5024801F074F9A2
:1019B00008BD00BF440000207047000000B587B09C
:1019C0000023029303930493059300930193164815
:1019D000164A026040F2CF224260836042F20F72E8
:1019E000C26003614361836101F04EFA90B94FF424
:1019F0008053029302A90C4801F0C0FA68B9002391
:101A0000009301936946084801F016FE40B907B0FB
:101A10005DF804FBFFF7FCFEE9E7FFF7F9FEEEE7F0
:101A2000FFF7F6FEF3E700BFD4000020002C0140D2
:101A300000B589B00023039304930593069307939D
:101A40000193029317484FF0804202604360836025
:101A50004FF6FF72C26003618023836101F014FAC4
:101A6000B8B907230393502304930223059300235B
:101A7000079303A90B4801F079FD68B9002301938E
:101A8000029301A9074801F0D7FD40B909B05DF8FC
:101A900004FBFFF7BDFEE4E7FFF7BAFEEEE7FFF752
:101AA000B7FEF3E78C00002000B587B00023029357
:101AB000039304930593009301931548154A02601C
:101AC0004FF434724260836044F61F62C260036167
:101AD000836101F0D9F990B94FF48053029302A9C0
:101AE0000B4801F04BFA68B9002300930193694653
:101AF000074801F0A1FD40B907B05DF804FBFFF70E
:101B000087FEE9E7FFF784FEEEE7FFF781FEF3E7E4
:101B1000440000200004004000B589B00023049375
:101B20000593069307930368324A934208D0B3F1B2
:101B3000804F28D0304A934248D009B05DF804FB6A
:101B40002E4B9A6942F400629A619B6903F4006328
:101B50000093009B00221146182000F029F918205C
:101B600000F04AF900221146192000F021F919204D
:101B700000F042F9002211461A2000F019F91A204B
:101B800000F03AF9D9E703F50433DA6942F00102CB
:101B9000DA61DA6902F001020192019A9A6942F06F
:101BA00004029A619B6903F004030293029B0123E0
:101BB000049304A9124800F049F9002211461C20A0
:101BC00000F0F6F81C2000F017F9B6E70B4BDA69C5
:101BD00042F00202DA61DB6903F002030393039B24
:101BE000002211461D2000F0E3F81D2000F004F94A
:101BF000A3E700BF002C0140000400400010024099
:101C0000000801400C480D490D4A002302E0D45859
:101C1000C4500433C4188C42F9D30A4A0A4C002336
:101C200001E013600432A242FBD3FFF7C5FE01F0CE
:101C3000C1FDFFF721FE70470000002018000020C2
:101C40000C43000818000020B8020020FEE7000046
:101C500010B504460E4B1A784FF47A73B3FBF2F3C7
:101C60000C4A1068B0FBF3F000F0DCF868B90F2CF8
:101C700001D901200AE0002221464FF0FF3000F098
:101C800097F8054B1C60002000E0012010BD00BF4C
:101C90000C000020080000201000002008B5074AB2
:101CA000136843F010031360032000F063F80F2063
:101CB000FFF7CEFFFFF72AFE002008BD00200240FC
:101CC000034A1168034B1B780B441360704700BF35
:101CD0001C0100200C000020014B1868704700BF59
:101CE0001C01002038B50446FFF7F6FF0546B4F1A5
:101CF000FF3F02D0044B1B781C44FFF7EDFF401B55
:101D0000A042FAD338BD00BF0C000020002808DB39
:101D10000901C9B200F1604000F5614080F800138C
:101D2000704700F00F000901C9B2014B1954704708
:101D300014ED00E000B500F00700C0F1070CBCF1A5
:101D4000040F28BF4FF0040C031D062B0FD9C31E30
:101D50004FF0FF3E0EFA0CF021EA000199400EFA16
:101D600003FE22EA0E0241EA02005DF804FB0023B2
:101D7000EEE7000010B50446C31E042B0FD80A4A34
:101D8000D36823F4E0631B041B0C240204F4E06416
:101D9000234343F0BF6343F40033D36010BD92216B
:101DA0000248FFF7B1FDEAE700ED00E01841000846
:101DB00070B506460C4615460F2A0ED80F2C11D8C2
:101DC0000B4BD8682A462146C0F30220FFF7B2FF2A
:101DD00001463046FFF79AFF70BDAA210548FFF77C
:101DE00093FDEBE7AB210348FFF78EFDE8E700BF6B
:101DF00000ED00E01841000808B5002808DB00F0FD
:101E00001F02400901239340044A42F8203008BDD4
:101E1000BE210348FFF778FDF9E700BF00E100E0CD
:101E2000184100080138B0F1807F0BD24FF0E02359
:101E30005861054AF02182F823100020986107229A
:101E40001A6170470120704700ED00E02DE9F04372
:101E500083B007460E467B4B984213D003F5806350
:101E600098420FD003F5806398420BD003F580634E
:101E7000984207D003F58063984203D0BD21724891
:101E8000FFF742FD33689AB212B1B3F5803F03D336
:101E9000BE216D48FFF738FD7368012B11D96B4ADD
:101EA00093420ED014D8A2F58012934209D003D9E0
:101EB000674A934205D016E0032B06D9113B012B4C
:101EC00011D84FF000094D46F8E0022B0BD3F8E78C
:101ED000604A9342F5D002F580329342F1D0A2F5E8
:101EE00080129342EDD0BF215748FFF70DFDE8E780
:101EF000594A934210D007D9564A93420CD002F562
:101F00008032934208D018E0A2F58012934203D0A9
:101F100002F5702293420CD1B368022B7CD8B368CF
:101F2000002B00F08580012B7BD07C614FF00809ED
:101F300003E0A2F580129342EED0B8F1FF0F7AD8F9
:101F40003846AA0003680F21914023EA010309FAE9
:101F500002F213430360736813F0805F00F0AD80FA
:101F60003E4B9A6942F001029A619B6903F00103BA
:101F70000193019BAA08911C394B53F8210005F0ED
:101F8000030189000F238B4020EA03002D4B9F4261
:101F900068D003F580639F4200F0E28003F5806320
:101FA0009F4200F0DF8003F580639F4248D0042306
:101FB00059E0F368013B022B02D8D6F80C90BCE73D
:101FC000D5212148FFF7A0FCF7E7F368013B022B7E
:101FD00003D8F36803F10409AFE7DC211A48FFF7DF
:101FE00093FCF6E7F368013B022B03D8F36803F197
:101FF0000809A2E7E3211448FFF786FCF6E7F36837
:10200000013B022B03D8F36803F10C0995E7EA21A1
:102010000D48FFF779FCF6E7F7210B48FFF774FC52
:102020007DE73C614FF0080987E74FF0000984E73E
:102030004FF0040981E7381DA5F10802920081E7FD
:10204000032310E00008014078410008000021103F
:102050000000121000003110000022100010024099
:102060000000014000238B40034302324C4941F8F9
:102070002230736813F4803F76D04A4A136843EAEB
:1020800008031360736813F4003F73D0454A536824
:1020900043EA08035360736813F4801F70D0414A09
:1020A000936843EA08039360736813F4001F6DD0CC
:1020B0003C4AD36843EA0803D3600135336833FAF6
:1020C00005F269D00124AC4003EA040834EA0303B2
:1020D000F3D1354B9F4213D003F580639F420FD05D
:1020E00003F580639F420BD003F580639F4207D0C6
:1020F00003F580639F4203D0CD212C48FFF704FCF9
:102100007368122B3FF6F4AE122B3FF616AF01A206
:1021100052F823F0191F0008B31F0008E51F00083C
:102120002B2000083B1F00083B1F00083B1F000836
:102130003B1F00083B1F00083B1F00083B1F000817
:102140003B1F00083B1F00083B1F00083B1F000807
:102150003B1F00083B1F0008CB1F0008FF1F0008A3
:10216000012380E702237EE70E4A136823EA08036F
:10217000136087E70B4A536823EA080353608AE732
:10218000084A936823EA080393608DE7054AD368F9
:1021900023EA0803D36090E703B0BDE8F08300BFF3
:1021A000000001400004014000080140784100089F
:1021B00038B504460D4621B1A3681D4207D0012061
:1021C00038BD4FF4DA710348FFF79EFBF4E70020B7
:1021D000F6E700BF7841000870B5054614460E4684
:1021E00021B1012C08D86CB12E6170BD4FF4EA7199
:1021F0000648FFF789FBF4E740F2D5110348FFF7E3
:1022000083FBF0E736042E61EFE700BF784100085A
:1022100038B505460C4641B1EB6804EA030224EAEE
:10222000030444EA02442C6138BD4FF4F6710248BD
:10223000FFF76AFBF0E700BF7841000882B0084B67
:102240001B68084AA2FB03235B0A00FB03F301930C
:1022500000BF019B5A1E0192002BF9D102B07047BA
:1022600008000020D34D6210002800F0898270B56C
:1022700082B00446036813B113F00F0F2AD023680D
:1022800013F0010F40D063682BB1B3F5803F02D04B
:10229000B3F5A02F24D19C4B5B6803F00C03042BF7
:1022A00029D0994B5B6803F00C03082B1ED06368A0
:1022B000B3F5803F55D0002B69D103F1804303F57E
:1022C00004331A6822F480321A601A6822F48022D9
:1022D0001A604BE040F267118C48FFF715FBCEE720
:1022E00040F26D118948FFF70FFBD4E7864B5B681E
:1022F00013F4803FDBD0844B1B6813F4003F03D002
:102300006368002B00F03E82236813F0020F00F098
:1023100089802369012B63D863691F2B66D87A4BA8
:102320005B6813F00C0F6CD0774B5B6803F00C0309
:10233000082B61D02369002B00F09A80744B012296
:102340001A60FFF7C9FC05466F4B1B6813F0020FBC
:1023500040F08580FFF7C0FC401B0228F4D9032021
:1023600015E2694A136843F480331360636843B32A
:10237000FFF7B2FC0546644B1B6813F4003FC3D162
:10238000FFF7AAFC401B6428F5D90320FFE1B3F551
:10239000A02F09D05C4B1A6822F480321A601A68A8
:1023A00022F480221A60E1E703F18043A3F53C3375
:1023B0001A6842F480221A601A6842F480321A6065
:1023C000D4E7FFF789FC05464F4B1B6813F4003F29
:1023D0009AD0FFF781FC401B6428F5D90320D6E191
:1023E00040F2A1114948FFF78FFA95E74FF4D171F8
:1023F0004648FFF789FA92E7434B5B6813F4803F46
:1024000098D1414B1B6813F0020F03D02369012BB5
:1024100040F0BA813C4A136823F0F803616943EA4B
:10242000C1031360236813F0080F3CD0A369012B8C
:1024300030D8A369002B6FD0354B0122C3F880241C
:10244000FFF74AFC0546304B5B6A13F0020F27D1B9
:10245000FFF742FC401B0228F5D9032097E12A4AE6
:10246000136823F0F803616943EAC1031360D9E7F5
:10247000274B00221A60FFF72FFC0546224B1B68F2
:1024800013F0020FCED0FFF727FC401B0228F5D92E
:1024900003207CE14FF4F1711C48FFF735FAC8E7DF
:1024A0000120FFF7CBFE236813F0040F00F0A48097
:1024B000E368012B01D9052B41D1134BDB6913F0E4
:1024C000805F42D1104BDA6942F08052DA61DB69F9
:1024D00003F080530193019B01250E4B1B6813F4FD
:1024E000807F34D0E368012B45D0002B5BD103F112
:1024F000804303F504331A6A22F001021A621A6A51
:1025000022F004021A623BE000100240D4410008AD
:102510000000424200700040A14B0022C3F880241A
:10252000FFF7DAFB05469F4B5B6A13F0020FBAD048
:10253000FFF7D2FB401B0228F5D9032027E140F228
:1025400011219948FFF7E0F9B7E70025C5E7974A59
:10255000136843F480731360FFF7BEFB0646934B8A
:102560001B6813F4807FBDD1FFF7B6FB801B642886
:10257000F5D903200BE18B4A136A43F00103136280
:10258000E36833B3FFF7A8FB0646864B1B6A13F0DC
:10259000020F2FD1FFF7A0FB801B41F28833984236
:1025A000F3D90320F3E0052B09D07E4B1A6A22F001
:1025B00001021A621A6A22F004021A62E0E7794BF9
:1025C0001A6A42F004021A621A6A42F001021A629E
:1025D000D6E7FFF781FB0646724B1B6A13F0020F2A
:1025E00008D0FFF779FB801B41F288339842F3D97A
:1025F0000320CCE0002D53D1E369022B56D8E369C8
:10260000002B00F0C380674A526802F00C02082ACF
:1026100000F0A680022B40F08F80236A13B1B3F53F
:10262000803F49D1636A4BB3B3F5802F26D0B3F511
:10263000002F23D0B3F5402F20D0B3F5801F1DD03D
:10264000B3F5A01F1AD0B3F5C01F17D0B3F5E01F24
:1026500014D0B3F5001F11D0B3F5101F0ED0B3F591
:10266000201F0BD0B3F5301F08D0B3F5401F05D0A5
:10267000B3F5501F02D0B3F5601F23D1484B0022A1
:102680001A66FFF729FB0546464B1B6813F0007FCF
:102690001ED0FFF721FB401B0228F5D9032076E06E
:1026A000404AD36923F08053D361A5E740F2AF21BC
:1026B0003D48FFF729F9A2E74FF42E713A48FFF79A
:1026C00023F9AFE740F2B9213748FFF71DF9D5E705
:1026D000236AB3F5803F1AD032494B6823F4741350
:1026E000226A606A024313434B602D4B01221A6633
:1026F000FFF7F2FA04462B4B1B6813F0007F19D149
:10270000FFF7EAFA001B0228F5D903203FE0A3688F
:1027100013B1B3F5003F07D1224A536823F40033C5
:10272000A1680B435360D7E740F2CF211E48FFF763
:10273000EBF8F1E700202AE0194B00221A66FFF7B8
:10274000CBFA0446174B1B6813F0007F06D0FFF747
:10275000C3FA001B0228F5D9032018E0002016E078
:10276000012B16D00F4B5B6803F48031226A914233
:1027700011D103F47013626A93420ED1002006E077
:1027800001207047012002E0012000E0002002B09B
:1027900070BD0120FBE70120F9E70120F7E700BF4A
:1027A0000000424200100240D44100080070004086
:1027B00086B0174B0FCB0DF1180C0CE90F0040F24F
:1027C0000123ADF80430134B5B6803F00C02082AB8
:1027D00002D0114806B07047C3F3834218326A44EE
:1027E00012F8100C13F4803F0DD00A4B5B68C3F352
:1027F000404318336B4413F8143C074A02FB00F0C3
:10280000B0FBF3F0E6E7054B03FB00F0E2E700BFA7
:10281000304200080010024000127A0000093D001A
:10282000002800F0FF8070B50D460446036813F0E1
:102830000F0F33D0022D37D87E4B1B6803F00703F0
:10284000AB420BD27B4A136823F007032B43136080
:10285000136803F00703AB4240F0E680236813F0EF
:10286000020F32D013F0040F04D0734A536843F4BC
:10287000E0635360236813F0080F04D06E4A536876
:1028800043F460535360A368C3B1C02B16D048D83B
:10289000A02B13D00ED9B02B10D048E04FF44E71BE
:1028A0006648FFF731F8C5E740F239316348FFF772
:1028B0002BF8C1E7802B01D0902B38D15E4A5368AA
:1028C00023F0F003A1680B435360236813F0010F5A
:1028D00047D06368022B30D86368012B33D0022BBA
:1028E00038D0554A126812F0020F00F09F8052490A
:1028F0004A6822F0030213434B60FFF7EDF90646E6
:102900004D4B5B6803F00C036268B3EB820F28D079
:10291000FFF7E2F9801B41F288339842F0D9032097
:1029200073E0E02BCAD0F02BC8D0D02BC6D040F239
:102930005F314248FEF7E8FFC0E740F266313F48AA
:10294000FEF7E2FFC8E73C4A126812F4003FCED11E
:1029500001205AE0384A126812F0007FC7D10120E6
:1029600053E0344B1B6803F00703AB420AD9314AEA
:10297000136823F007032B431360136803F0070366
:10298000AB4255D1236813F0040F14D0E3685BB158
:10299000B3F5806F08D0B3F5A06F05D0B3F5C06F65
:1029A00002D0B3F5E06F31D1234A536823F4E063DA
:1029B000E1680B435360236813F0080F15D02369B7
:1029C0005BB1B3F5806F08D0B3F5A06F05D0B3F558
:1029D000C06F02D0B3F5E06F1ED1174A536823F4DD
:1029E0006053216943EAC1035360FFF7E1FE124BD4
:1029F0005B68C3F30313124AD35CD840114B1860D1
:102A0000114B1868FFF724F9002070BD4FF469716D
:102A10000A48FEF779FFC7E740F2AB310748FEF7F7
:102A200073FFDAE7012070470120EEE70120ECE7B1
:102A30000120EAE70020024000100240D4410008D3
:102A400008410008080000201000002010B4036AAC
:102A5000046A24F001040462846924F0F00C4CEA56
:102A6000021223F00A030B438261036210BC704719
:102A700010B4036A23F0100303628469036A24F428
:102A8000704C4CEA023223F0A00343EA0113826146
:102A9000036210BC7047836823F070030B4343F05C
:102AA000070383607047000010B5044603681F4A9F
:102AB00093420FD0B3F1804F0CD0A2F594329342E1
:102AC00008D002F58062934204D04FF4CA711848CE
:102AD000FEF71AFF94F83D30DBB2012B22D102231E
:102AE00084F83D302368114A934210D0B3F1804FEF
:102AF0000DD0A2F59432934209D002F58062934240
:102B000005D01A6842F001021A6000200BE09A68B2
:102B100002F00702062A07D01A6842F001021A6082
:102B2000002000E0012010BD0020FCE7002C014047
:102B30004442000810B504460368134A93420FD07C
:102B4000B3F1804F0CD0A2F59432934208D002F535
:102B50008062934204D040F2B9110C48FEF7D4FED3
:102B60002368196A41F21112114208D1196A40F220
:102B70004442114203D11A6822F001021A60012373
:102B800084F83D30002010BD002C01404442000874
:102B900010B504460368224A93420FD0B3F1804F28
:102BA0000CD0A2F59432934208D002F58062934291
:102BB00004D040F2CF111B48FEF7A6FE94F83D303A
:102BC000DBB2012B27D1022384F83D302268D36881
:102BD00043F00103D3602368114A934210D0B3F14C
:102BE000804F0DD0A2F59432934209D002F5806255
:102BF000934205D01A6842F001021A6000200BE0EF
:102C00009A6802F00702062A07D01A6842F0010209
:102C10001A60002000E0012010BD0020FCE700BF8A
:102C2000002C01404442000810B504460368164ACF
:102C300093420FD0B3F1804F0CD0A2F5943293425F
:102C400008D002F58062934204D040F2F7110F4899
:102C5000FEF75AFE2268D36823F00103D36023688D
:102C6000196A41F21112114208D1196A40F2444224
:102C7000114203D11A6822F001021A60012384F87C
:102C80003D30002010BD00BF002C01404442000830
:102C9000704770477047704710B5044603681A695B
:102CA00012F0020F11D0DA6812F0020F0DD06FF09F
:102CB00002021A610123037703689B6913F0030F73
:102CC00070D0FFF7E6FF0023237723681A6912F01C
:102CD000040F12D0DA6812F0040F0ED06FF0040265
:102CE0001A610223237723689B6913F4407F5FD026
:102CF0002046FFF7CEFF0023237723681A6912F0DE
:102D0000080F12D0DA6812F0080F0ED06FF0080228
:102D10001A61042323772368DB6913F0030F4ED075
:102D20002046FFF7B6FF0023237723681A6912F0C5
:102D3000100F12D0DA6812F0100F0ED06FF01002E0
:102D40001A61082323772368DB6913F4407F3DD0A1
:102D50002046FFF79EFF0023237723681A6912F0AD
:102D6000010F03D0DA6812F0010F36D123681A6917
:102D700012F0800F03D0DA6812F0800F34D123688C
:102D80001A6912F0400F03D0DA6812F0400F32D106
:102D900023681A6912F0200F03D0DA6812F0200FAE
:102DA00030D110BDFFF774FF2046FFF773FF8AE7AD
:102DB0002046FFF76DFF2046FFF76CFF9BE720469C
:102DC000FFF766FF2046FFF765FFACE72046FFF7F9
:102DD0005FFF2046FFF75EFFBDE76FF001021A615B
:102DE0002046FEF7F9FCC1E76FF080021A61204629
:102DF00000F08FFCC3E76FF040021A612046FFF736
:102E00004AFFC5E76FF020021A61204600F080FCFF
:102E1000C7E7000003681B4A90420AD0B0F1804F18
:102E200007D0A2F59432904203D002F5806290421E
:102E300003D123F070034A681343124A90420AD028
:102E4000B0F1804F07D0A2F59432904203D002F542
:102E50008062904203D123F44073CA68134323F085
:102E600080034A69134303608B68C3620B68836203
:102E7000044B984202D00123436170470B690363FE
:102E8000F9E700BF002C0140002865D010B50446CA
:102E90000368324A93420FD0B3F1804F0CD0A2F5B1
:102EA0009432934208D002F58062934204D040F2FB
:102EB00013112B48FEF728FDA3683BB1102B05D05A
:102EC000202B03D0402B01D0602B2DD123692BB1B7
:102ED000B3F5807F02D0B3F5007F2BD1A3690BB18E
:102EE000802B2DD194F83D3083B3022384F83D30FC
:102EF000214651F8040BFFF78DFF012384F846307B
:102F000084F83E3084F83F3084F8403084F8413013
:102F100084F8423084F8433084F8443084F84530F3
:102F200084F83D30002010BD4FF48A710C48FEF744
:102F3000EBFCCBE740F215110948FEF7E5FCCDE7C5
:102F40004FF48B710648FEF7DFFCCBE784F83C308A
:102F50002046FEF7E1FDC8E701207047002C014044
:102F60004442000810B4846824F47F4C42EA0322EF
:102F70000A4342EA0C02826010BC704738B590F8F0
:102F80003C30012B00F0BA8104460D46012380F845
:102F90003C30022380F83D300B68B3F5805F18D0D9
:102FA000B3F5005F15D0A3B1402B12D00BD8202B66
:102FB0000FD0302B0DD0102B0BD041F2324197485F
:102FC000FEF7A2FC05E0602B03D0702B01D0502B44
:102FD000F3D12268936823F47F4323F0770393604F
:102FE0002B68602B00F01E8159D8402B00F05081D7
:102FF0002DD9502B30D12368894A93420FD0B3F199
:10300000804F0CD0A2F59432934208D002F5806232
:10301000934204D041F271418048FEF775FC6B6821
:10302000B3F5004F05D023B1022B02D00A2B40F09C
:10303000E980EB680F2B00F2EB80EA686968206892
:10304000FFF704FD50212068FFF725FD04E0202B49
:103050000CD008D9302B09D0012384F83D30002052
:1030600084F83C0038BD0BB1102BF5D123686C4AB5
:1030700093420FD0B3F1804F0CD0A2F5943293421B
:1030800008D002F58062934204D041F2A441634823
:10309000FEF73AFC29682068FFF7FDFCDCE7B3F592
:1030A000805F72D0B3F5005F36D123685C4A9342EB
:1030B0000FD0B3F1804F0CD0A2F59432934208D0D8
:1030C00002F58062934204D041F25D415348FEF71D
:1030D0001BFCAB6843B1B3F5805F05D0B3F5005F6F
:1030E00002D0B3F5405F7BD16B68B3F5004F04D0DD
:1030F0001BB1022B01D00A2B78D1EB680F2B7BD8A8
:10310000EB686A68A9682068FFF72CFF226893685B
:1031100043F4804393609FE7702B9DD12368404A1E
:1031200093420FD0B3F1804F0CD0A2F5943293426A
:1031300008D002F58062934204D041F245413748FD
:10314000FEF7E2FBAB6843B1B3F5805F05D0B3F5A2
:10315000005F02D0B3F5405F30D16B68B3F5004F2C
:1031600004D01BB1022B01D00A2B2DD1EB680F2B01
:1031700030D8EB686A68A9682068FFF7F3FE226818
:10318000936843F07703936066E72368244A934289
:103190003FF462AFB3F1804F3FF45EAFA2F59432DB
:1031A00093423FF459AF02F5806293423FF454AF2B
:1031B00041F23E411948FEF7A7FB4DE741F2484175
:1031C0001648FEF7A1FBC8E741F249411348FEF754
:1031D0009BFBCBE741F24A411048FEF795FBC8E75D
:1031E0004FF4A3510D48FEF78FFB7DE741F261419B
:1031F0000A48FEF789FB80E741F262410748FEF783
:1032000083FB7DE741F274410448FEF77DFB10E744
:1032100041F275410148FEF777FB0EE74442000892
:10322000002C01402368364A93420FD0B3F1804FFF
:103230000CD0A2F59432934208D002F580629342FA
:1032400004D041F281412F48FEF75EFB6B68B3F575
:10325000004F04D01BB1022B01D00A2B0CD1EB681C
:103260000F2B0FD8EA6869682068FFF701FC60211E
:103270002068FFF710FCEFE641F284412148FEF799
:1032800043FBECE741F285411E48FEF73DFBE9E7D1
:1032900023681B4A93420FD0B3F1804F0CD0A2F5A4
:1032A0009432934208D002F58062934204D041F2F6
:1032B00091411448FEF728FB6B68B3F5004F04D02A
:1032C0001BB1022B01D00A2B0CD1EB680F2B0FD8AE
:1032D000EA6869682068FFF7B9FB40212068FFF7BA
:1032E000DAFBB9E641F294410648FEF70DFBECE744
:1032F00041F295410348FEF707FBE9E70220B1E6FA
:10330000002C01404442000838B505460C460168CF
:103310008A6822F070026368134323F0070322686F
:103320001A438A606368502B00F0A98038D9602B5B
:1033300000F0D880702B40F008810368894A9342DE
:103340000FD0B3F1804F0CD0A2F59432934208D045
:1033500002F58062934204D041F65C318248FEF768
:10336000D3FAE36843B1B3F5805F05D0B3F5005FEE
:1033700002D0B3F5405F3ED1A368B3F5004F04D04F
:103380001BB1022B01D00A2B3BD123690F2B3ED856
:103390002369A268E1682868FFF7E4FD002003E0E4
:1033A000402B3AD001D9002038BD202B07D003D9BB
:1033B000302B04D00020F7E70BB1102B19D12B686C
:1033C000684A934200F0C580B3F1804F00F0C3809B
:1033D000A2F59432934200F0C08002F580629342DD
:1033E00000F0BD8041F6A4315F48FEF78DFA002061
:1033F000DAE70020D8E741F65D315B48FEF784FA52
:10340000BAE741F65E315848FEF77EFABDE741F66D
:103410005F315548FEF778FABAE70368514A93429C
:103420000FD0B3F1804F0CD0A2F59432934208D064
:1034300002F58062934204D041F66B314A48FEF7B0
:1034400063FA23690F2B14D82368052B7FD02B68D0
:10345000196A1A6A22F001021A622A68936923F033
:10346000F003206943EA001393612B68196200207E
:103470009AE741F66C313C48FEF746FAE4E7036808
:10348000384A93420FD0B3F1804F0CD0A2F594325A
:10349000934208D002F58062934204D041F6853110
:1034A0003148FEF731FAA368B3F5004F04D01BB1E1
:1034B000022B01D00A2B09D123690F2B0CD82269CA
:1034C000A1682868FFF7C2FA00206DE741F686314F
:1034D0002548FEF719FAEFE741F687312248FEF753
:1034E00013FAECE703681F4A93420FD0B3F1804F01
:1034F0000CD0A2F59432934208D002F58062934238
:1035000004D041F693311848FEF7FEF9A368B3F5ED
:10351000004F04D01BB1022B01D00A2B09D1236923
:103520000F2B0CD82269A1682868FFF7A1FA0020A8
:103530003AE741F694310C48FEF7E6F9EFE741F639
:1035400095310948FEF7E0F9ECE700202CE701206F
:103550002AE7002028E7002026E7002024E70020B3
:1035600022E700BF002C01404442000838B5044661
:103570000D4603682E4A93420FD0B3F1804F0CD012
:10358000A2F59432934208D002F58062934204D0AF
:1035900041F2E3412748FEF7B7F92B6813B1043B2A
:1035A000032B10D86B68D3B1402B18D011D8202B27
:1035B00015D0302B13D0102B11D041F2E5411D480E
:1035C000FEF7A2F90BE041F2E4411A48FEF79CF93C
:1035D000E8E7602B03D0702B01D0502BEDD194F88D
:1035E0003C30012B22D0012384F83C30022384F8A4
:1035F0003D3029462046FFF787FE80B92268D36810
:1036000023F04003D3602268D36823F48043D3605F
:10361000012384F83D30002384F83C3038BD01207C
:1036200084F83D00002384F83C30F7E70220F5E7FA
:10363000002C01404442000838B504460D4603689A
:10364000314A93420FD0B3F1804F0CD0A2F594329F
:10365000934208D002F58062934204D040F2867112
:103660002A48FEF751F92B68A3B1402B12D00BD892
:10367000202B0FD0302B0DD0102B0BD040F28771A8
:103680002248FEF741F905E0602B03D0702B01D0F2
:10369000502BF3D16B68802B00D063BB94F83C3087
:1036A000012B2ED0012384F83C30022384F83D30D6
:1036B00023685968986821F070012A680A435A60A3
:1036C0002368114A93420AD0B3F1804F07D0A2F584
:1036D0009432934203D002F58062934204D120F0E9
:1036E00080006A6802439A60012384F83D3000201C
:1036F00084F83C0038BD4FF4F1610448FEF704F94A
:10370000CCE70220F6E700BF002C0140A0420008F1
:103710007047704770B5860747D0541E002A3ED0C8
:103720000346CAB201E0013C39D303F8012B9D07DF
:10373000F9D1032C2CD9CDB205EB05250F2C1A4657
:1037400005EB054534D9A4F1100C2CF00F0603F15C
:10375000100EB6444FEA1C1C156055609560D5608C
:1037600010327245F8D10CF1010214F00C0F03EB8A
:10377000021204F00F0C13D0ACF1040323F0030386
:103780000433134442F8045B9A42FBD10CF0030467
:103790002CB1C9B21C4403F8011B9C42FBD170BD83
:1037A00064461346002CF4D1F9E703461446C0E7FB
:1037B000A446E1E770B50F4B0F4DAB42A3EB0506F6
:1037C00007D00024B61055F8043B01349847A642B0
:1037D000F9D800F07FF8094D094B5E1BAB424FEA68
:1037E000A60606D0002455F8043B01349847A642AB
:1037F000F9D870BD004300080043000800430008EA
:1038000008430008704700BF704700BF024B13B168
:10381000024800F005B87047000000002D3800088D
:10382000002301461A46184600F014B838B5074D73
:10383000074C2C1BA41005D0013C55F8043D9847BB
:10384000002CF9D1BDE8384000F04AB80C4300081C
:10385000084300082DE9F8431B4D064628689846A2
:103860000F469146FFF7CEFF184B1C681CB3286823
:1038700065681F2D22DC4EB96B1C0235636044F86D
:103880002570FFF7C1FF0020BDE8F883012304EB9A
:103890008501C1F88890D4F88821AB401A43022EE4
:1038A000C4F88821C1F80881E6D1D4F88C211A43E4
:1038B000C4F88C21E0E7064C1C60D8E7FFF7A4FFB2
:1038C0004FF0FF30E0E700BF14000020240100208B
:1038D00028010020F8B500BFF8BC08BC9E46704720
:0C38E000F8B500BFF8BC08BC9E4670475D
:1038EC0000000000000000000000000000000000CC
:1038FC00000000F800000000000000333000000061
:10390C0000100C06100C0600000000000000000067
:10391C0040C07840C0784000043F04043F040400D9
:10392C00007088FC08300000001820FF211E0000E9
:10393C00F008F000E018000000211C031E211E00FE
:10394C0000F00888700000001E2123241927211084
:10395C0010160E0000000000000000000000000027
:10396C00000000E0180402000000000718204000CE
:10397C0000020418E00000000040201807000000BE
:10398C00404080F0804040000202010F0102020022
:10399C00000000F0000000000101011F0101010006
:1039AC00000000000000000080B07000000000006B
:1039BC0000000000000000000001010101010101F4
:1039CC00000000000000000000303000000000008B
:1039DC000000000080601804006018060100000060
:1039EC0000E010080810E000000F102020100F005D
:1039FC00001010F8000000000020203F20200000E4
:103A0C00007008080888700000302824222130003B
:103A1C0000300888884830000018202020110E0043
:103A2C000000C02010F8000000070424243F2400EC
:103A3C0000F80888880808000019212020110E00C1
:103A4C0000E0108888180000000F112020110E00D3
:103A5C0000380808C83808000000003F00000000CB
:103A6C000070880808887000001C222121221C008C
:103A7C0000E010080810E0000000312222110F00B5
:103A8C00000000C0C000000000000030300000004A
:103A9C0000000080000000000000806000000000BA
:103AAC0000008040201008000001020408102000D3
:103ABC00404040404040400004040404040404001E
:103ACC0000081020408000000020100804020100B3
:103ADC00007048080808F0000000003036010000B3
:103AEC00C030C828E810E0000718272423140B0066
:103AFC000000C038E0000000203C230202273820E0
:103B0C0008F8888888700000203F202020110E00C3
:103B1C00C0300808080838000718202020100800BA
:103B2C0008F808080810E000203F202020100F00A3
:103B3C0008F88888E8081000203F2020232018006F
:103B4C0008F88888E8081000203F200003000000D7
:103B5C00C03008080838000007182020221E020078
:103B6C0008F808000008F808203F210101213F2037
:103B7C00000808F8080800000020203F2020000062
:103B8C0000000808F8080800C08080807F00000052
:103B9C0008F888C028180800203F2001263820008B
:103BAC0008F8080000000000203F202020203000F2
:103BBC0008F8F800F8F80800203F003F003F20000C
:103BCC0008F830C00008F808203F200007183F0014
:103BDC00E01008080810E0000F10202020100F0043
:103BEC0008F808080808F000203F21010101000036
:103BFC00E01008080810E0000F18242438504F007B
:103C0C0008F8888888887000203F2000030C30203A
:103C1C0000708808080838000038202121221C0078
:103C2C00180808F8080818000000203F20000000C1
:103C3C0008F808000008F808001F202020201F00AA
:103C4C000878880000C83808000007380E0100000A
:103C5C00F80800F80008F800033C0700073C0300D4
:103C6C00081868808068180820302C03032C30203A
:103C7C000838C800C83808000000203F20000000A9
:103C8C0010080808C8380800203826212020180001
:103C9C00000000FE020202000000007F40404000D5
:103CAC00000C30C000000000000000010638C0000D
:103CBC0000020202FE000000004040407F000000B5
:103CCC0000000402020204000000000000000000DA
:103CDC0000000000000000008080808080808080D8
:103CEC0000020204000000000000000000000000C0
:103CFC0000008080808000000019242222223F20B6
:103D0C0008F8008080000000003F112020110E00F8
:103D1C000000008080800000000E11202020110087
:103D2C00000000808088F800000E112020103F2039
:103D3C000000808080800000001F222222221300BD
:103D4C00008080F0888888180020203F2020000008
:103D5C000000808080808000006B949494936000BD
:103D6C0008F8008080800000203F210000203F20C8
:103D7C0000809898000000000020203F20200000C8
:103D8C00000000809898000000C08080807F0000B8
:103D9C0008F8000080808000203F24022D30200095
:103DAC00000808F8000000000020203F2020000040
:103DBC008080808080808000203F20003F20003F5A
:103DCC008080008080800000203F210000203F2068
:103DDC000000808080800000001F202020201F0019
:103DEC00808000808000000080FFA12020110E0048
:103DFC000000008080808000000E112020A0FF8039
:103E0C00808080008080800020203F2120000100E5
:103E1C00000080808080800000332424242419003A
:103E2C00008080E0808000000000001F2020000047
:103E3C008080000000808000001F202020103F2088
:103E4C00808080000080808000010E300806010018
:103E5C0080800080008080800F300C030C300F00BD
:103E6C0000808000808080000020312E0E312000E8
:103E7C00808080000080808080818E701806010018
:103E8C0000808080808080000021302C2221300036
:103E9C0000000000807C020200000000003F404057
:103EAC0000000000FF00000000000000FF00000008
:103EBC000002027C800000000040403F0000000037
:103ECC0000060101020204040000000000000000D2
:103EDC000000000000000000002F000000000700A0
:103EEC00070000147F147F1400242A7F2A12231346
:103EFC00086462000036495522500000050300009A
:103F0C0000001C224100000041221C000014083E4D
:103F1C0008140008083E0808000000A06000000813
:103F2C000808080800006060000000201008040267
:103F3C00003E5149453E0000427F40000042615125
:103F4C004946002141454B31001814127F100027BF
:103F5C0045454539003C4A49493000017109050382
:103F6C0000364949493600064949291E00003636B3
:103F7C000000000056360000000814224100001416
:103F8C0014141414000041221408000201510906F3
:103F9C0000324959513E007C1211127C007F494974
:103FAC004936003E41414122007F4141221C007FA5
:103FBC0049494941007F09090901003E4149497AB3
:103FCC00007F0808087F0000417F4100002040412D
:103FDC003F01007F08142241007F40404040007F99
:103FEC00020C027F007F0408107F003E4141413EDD
:103FFC00007F09090906003E4151215E007F091925
:10400C0029460046494949310001017F0101003F21
:10401C004040403F001F2040201F003F4038403FA1
:10402C000063140814630007087008070061514905
:10403C00454300007F41410000552A552A55000098
:10404C0041417F0000040201020400404040404016
:10405C00000001020400002054545478007F4844AE
:10406C00443800384444442000384444487F0038E5
:10407C005454541800087E0901020018A4A4A47C0E
:10408C00007F080404780000447D400000408084D8
:10409C007D00007F102844000000417F4000007C20
:1040AC0004180478007C080404780038444444382C
:1040BC0000FC242424180018242418FC007C080478
:1040CC00040800485454542000043F444020003C51
:1040DC004040207C001C2040201C003C4030403CD8
:1040EC00004428102844001CA0A0A07C0044645468
:1040FC004C44000048656C6C6F0000000000000030
:10410C000000000001020304060708092F5573651F
:10411C0072732F6361742F434C696F6E50726F6AA8
:10412C00656374732F496D6167696E655F43757064
:10413C002F447269766572732F53544D3332463166
:10414C0078785F48414C5F4472697665722F537280
:10415C00632F73746D3332663178785F68616C5F8E
:10416C00636F727465782E63000000002F557365C1
:10417C0072732F6361742F434C696F6E50726F6A48
:10418C00656374732F496D6167696E655F43757004
:10419C002F447269766572732F53544D3332463106
:1041AC0078785F48414C5F4472697665722F537220
:1041BC00632F73746D3332663178785F68616C5F2E
:1041CC006770696F2E6300002F55736572732F63D0
:1041DC0061742F434C696F6E50726F6A65637473B0
:1041EC002F496D6167696E655F4375702F44726905
:1041FC00766572732F53544D3332463178785F485D
:10420C00414C5F4472697665722F5372632F7374DD
:10421C006D3332663178785F68616C5F7263632EE0
:10422C006300000002030405060708090A0B0C0DC5
:10423C000E0F1010000000002F55736572732F6362
:10424C0061742F434C696F6E50726F6A656374733F
:10425C002F496D6167696E655F4375702F44726994
:10426C00766572732F53544D3332463178785F48EC
:10427C00414C5F4472697665722F5372632F73746D
:10428C006D3332663178785F68616C5F74696D2E5E
:10429C00630000002F55736572732F6361742F4395
:1042AC004C696F6E50726F6A656374732F496D61E0
:1042BC0067696E655F4375702F44726976657273BA
:1042CC002F53544D3332463178785F48414C5F441C
:1042DC0072697665722F5372632F73746D33326605
:1042EC003178785F68616C5F74696D5F65782E6397
:0442FC0000000000BE
:084300000D380008710E0008E1
:04430800490E000852
:10430C00FFFFFFFFFFFFFFFF0024F4000100000090
:08431C00100000002001002048
:0400000508001C05CE
:00000001FF
