:020000040800F2
:10000000005000206D190008B9160008BB16000842
:10001000BD160008BF160008C11600080000000049
:10002000000000000000000000000000C3160008EF
:10003000C516000800000000C7160008C916000811
:10004000B5190008B5190008B5190008B519000858
:10005000B5190008B5190008B5190008B519000848
:10006000B5190008B5190008B5190008B519000838
:10007000B5190008B5190008B5190008B519000828
:10008000B5190008B5190008B5190008B519000818
:10009000B5190008B5190008B5190008B519000808
:1000A000D1160008E1160008F1160008B51900087D
:1000B0000117000811170008B5190008B519000844
:1000C000B5190008B5190008B5190008B5190008D8
:1000D000B5190008B5190008B5190008B5190008C8
:1000E000B5190008B5190008B5190008000000008E
:1000F0000000000000000000000000000000000000
:0C01000000000000000000005FF808F1A3
:10010C0010B5054C237833B9044B13B10448AFF345
:10011C0000800123237010BD4C040020000000005F
:10012C00D835000808B5034B1BB103490348AFF39E
:10013C00008008BD0000000050040020D8350008E5
:10014C0080F0004002E000BF81F0004142001FBF80
:10015C005FEA410392EA030F7FEA226C7FEA236C89
:10016C006AD04FEA1262D2EB1363C1BFD21841407E
:10017C0048404140B8BF5B42192B88BF704710F014
:10018C00004F40F4000020F07F4018BF404211F0B7
:10019C00004F41F4000121F07F4118BF494292EA1F
:1001AC00030F3FD0A2F1010241FA03FC10EB0C004B
:1001BC00C3F1200301FA03F100F0004302D54942D8
:1001CC0060EB4000B0F5000F13D3B0F1807F06D385
:1001DC0040084FEA310102F10102FE2A51D2B1F17D
:1001EC00004F40EBC25008BF20F0010040EA030072
:1001FC007047490040EB0000013A28BFB0F5000FF2
:10020C00EDD2B0FA80FCACF1080CB2EB0C0200FAA7
:10021C000CF0AABF00EBC25052421843BCBFD040F6
:10022C001843704792F0000F81F4000106BF80F470
:10023C0000000132013BB5E74FEA41037FEA226C33
:10024C0018BF7FEA236C21D092EA030F04D092F0FE
:10025C00000F08BF0846704790EA010F1CBF002032
:10026C00704712F07F4F04D1400028BF40F000408F
:10027C00704712F100723CBF00F50000704700F0AF
:10028C00004343F0FE4040F4000070477FEA2262D6
:10029C0016BF08467FEA23630146420206BF5FEAA7
:1002AC00412390EA010F40F4800070474FF00003A7
:1002BC0004E000BF10F0004348BF40425FEA000C6E
:1002CC0008BF704743F0964301464FF000001CE016
:1002DC0050EA010208BF70474FF000030AE000BF6C
:1002EC0050EA010208BF704711F0004302D54042AA
:1002FC0061EB41015FEA010C02BF8446014600201C
:10030C0043F0B64308BFA3F18053A3F50003BCFA36
:10031C008CF2083AA3EBC25310DB01FA02FC6344E3
:10032C0000FA02FCC2F12002BCF1004F20FA02F2EA
:10033C0043EB020008BF20F00100704702F12002DD
:10034C0001FA02FCC2F1200250EA4C0021FA02F23E
:10035C0043EB020008BF20EADC7070474FF0FF0C43
:10036C001CEAD0521EBF1CEAD15392EA0C0F93EA3E
:10037C000C0F6FD01A4480EA010C400218BF5FEAE0
:10038C0041211ED04FF0006343EA501043EA511153
:10039C00A0FB01310CF00040B1F5000F3EBF49004D
:1003AC0041EAD3715B0040EA010062F17F02FD2A51
:1003BC001DD8B3F1004F40EBC25008BF20F0010034
:1003CC00704790F0000F0CF0004C08BF49024CEA4B
:1003DC00502040EA51207F3AC2BFD2F1FF0340EADD
:1003EC00C250704740F400004FF00003013A5DDC4E
:1003FC0012F1190FDCBF00F000407047C2F100028F
:10040C00410021FA02F1C2F1200200FA02FC5FEA7B
:10041C00310040F1000053EA4C0308BF20EADC70C5
:10042C00704792F0000F00F0004C02BF400010F437
:10043C00000F013AF9D040EA0C0093F0000F01F0E4
:10044C00004C02BF490011F4000F013BF9D041EA06
:10045C000C018FE70CEAD15392EA0C0F18BF93EA08
:10046C000C0F0AD030F0004C18BF31F0004CD8D132
:10047C0080EA010000F00040704790F0000F17BFB9
:10048C0090F0004F084691F0000F91F0004F14D0FF
:10049C0092EA0C0F01D142020FD193EA0C0F03D157
:1004AC004B0218BF084608D180EA010000F000405A
:1004BC0040F0FE4040F40000704740F0FE4040F435
:1004CC00400070474FF0FF0C1CEAD0521EBF1CEAD4
:1004DC00D15392EA0C0F93EA0C0F69D0A2EB0302F2
:1004EC0080EA010C49024FEA402037D04FF080538C
:1004FC0043EA111143EA10130CF000408B4238BF51
:10050C005B0042F17D024FF4000C8B4224BF5B1A5E
:10051C0040EA0C00B3EB510F24BFA3EB510340EAAC
:10052C005C00B3EB910F24BFA3EB910340EA9C005A
:10053C00B3EBD10F24BFA3EBD10340EADC001B01CA
:10054C0018BF5FEA1C1CE0D1FD2A3FF650AF8B426E
:10055C0040EBC25008BF20F0010070470CF0004C7B
:10056C004CEA50207F32C2BFD2F1FF0340EAC250A6
:10057C00704740F400004FF00003013A37E792F067
:10058C00000F00F0004C02BF400010F4000F013AC5
:10059C00F9D040EA0C0093F0000F01F0004C02BFC0
:1005AC00490011F4000F013BF9D041EA0C0195E729
:1005BC000CEAD15392EA0C0F08D142027FF47DAFC2
:1005CC0093EA0C0F7FF470AF084676E793EA0C0FB2
:1005DC0004D14B023FF44CAF08466EE730F0004CB0
:1005EC0018BF31F0004CCAD130F000427FF45CAF40
:1005FC0031F000437FF43CAF5FE700BF4FF0FF3CAE
:10060C0006E000BF4FF0010C02E000BF4FF0010C00
:10061C004DF804CD4FEA40024FEA41037FEA226CC9
:10062C0018BF7FEA236C11D001B052EA530C18BFEB
:10063C0090EA010F58BFB2EB030088BFC81738BF50
:10064C006FEAE17018BF40F0010070477FEA226C3E
:10065C0002D15FEA402C05D17FEA236CE4D15FEA3A
:10066C00412CE1D05DF8040B704700BF844608466E
:10067C006146FFE70FB5FFF7C9FF002848BF10F12F
:10068C00000F0FBD4DF808EDFFF7F4FF0CBF012074
:10069C0000205DF808FB00BF4DF808EDFFF7EAFFFE
:1006AC0034BF012000205DF808FB00BF4DF808EDB9
:1006BC00FFF7E0FF94BF012000205DF808FB00BFAE
:1006CC004DF808EDFFF7D2FF94BF012000205DF834
:1006DC0008FB00BF4DF808EDFFF7C8FF34BF012041
:1006EC0000205DF808FB00BF4FEA4002B2F1FE4F5C
:1006FC000FD34FF09E03B3EB12620DD94FEA0023D8
:10070C0043F0004310F0004F23FA02F018BF4042B0
:10071C0070474FF00000704712F1610F01D1420297
:10072C0005D110F0004008BF6FF0004070474FF04B
:10073C000000704710B5054C204602F06FF80448D5
:10074C0002F06CF8236800225A6210BDC00400202D
:10075C0008050020104B1B7803B1704710B50F48EB
:10076C0002684FF4347393620D4B1B68642101FBD8
:10077C0003F3013B536202F07FF80A4C204602F06F
:10078C0007F8236800225A62204602F075F8024BE3
:10079C0001221A7010BD00BF6C0400200805002057
:1007AC0000000020C0040020024A137801331370AB
:1007BC00704700BF6D040020014B1868704700BFE4
:1007CC007004002008B5084B1968084B1868FFF72F
:1007DC00C5FD01460648FFF775FE0649FFF7BEFD4D
:1007EC00054B186008BD00BF680400200400002001
:1007FC00EC51B83F0000C842700400201C4B1B7821
:10080C0003B970472DE9F0411A4C204602F080F8EC
:10081C00204602F003F8184C204601F0FFFF226836
:10082C00536A002515490B604D605562144F3C7896
:10083C00C4EB04444FEAE4781C1948F10008114B4E
:10084C001868FFF733FD064620464146FFF740FD8A
:10085C003146FFF783FD01460B48FFF733FE0B4B88
:10086C0018603D70FFF7AEFF014B1D70BDE8F081C5
:10087C006C04002008050020C004002008000020A3
:10088C006D0400200000002000247449680400203E
:10089C0038B500224FF48051534801F029FB4FF436
:1008AC008071524801F010FB002800F09980002460
:1008BC004FF400714D4801F007FB00B902244FF4CE
:1008CC0080614A4801F000FB00B903244FF4006139
:1008DC00464801F0F9FA00B90A24434D01224FF4BD
:1008EC008051284601F004FB00224FF400512846A9
:1008FC0001F0FEFA4FF480713C4801F0E5FA00B9C2
:10090C0004244FF40071394801F0DEFA00B90524D3
:10091C004FF48061354801F0D7FA00B906244FF442
:10092C000061324801F0D0FA00B90B242E4D01229F
:10093C004FF40051284601F0DBFA00224FF48041BD
:10094C00284601F0D5FA4FF48071284801F0BCFA22
:10095C0000B907244FF40071244801F0B5FA00B92E
:10096C0008244FF48061214801F0AEFA00B9092443
:10097C004FF400611D4801F0A7FA00B90C241A4D80
:10098C0001224FF48041284601F0B2FA00224FF4C4
:10099C000041284601F0ACFA4FF48071134801F085
:1009AC0093FA00B90D244FF40071104801F08CFA41
:1009BC00054600B125464FF480610C4801F084FADD
:1009CC0000B90F254FF40061084801F07DFA48B1D9
:1009DC0001224FF40041044801F08AFA284638BD40
:1009EC00012465E70D25F3E7000C014000080140E8
:1009FC00014B1878704700BF7404002038B5444C84
:100A0C00444D2B782370FFF743FF28702378012B7C
:100A1C001ED0022B22D0032B26D0042B2AD0052B40
:100A2C002ED0062B32D0072B36D0082B3AD0092BE0
:100A3C003ED00A2B42D00B2B46D00C2B4AD00D2B80
:100A4C004ED00E2B52D00F2B56D0102B5AD038BD67
:100A5C000028DED1304A01211170DAE70028DAD102
:100A6C002D4A02211170D6E70028D6D12A4A03213B
:100A7C001170D2E70028D2D1274A04211170CEE799
:100A8C000028CED1244A05211170CAE70028CAD10A
:100A9C00214A06211170C6E70028C6D11E4A07213B
:100AAC001170C2E70028C2D11B4A08211170BEE7A1
:100ABC000028BED1184A09211170BAE70028BAD112
:100ACC00154A0A211170B6E70028B6D1124A0B213B
:100ADC001170B2E70028B2D10F4A0C211170AEE7A9
:100AEC000028AED10C4A0D211170AAE70028AAD11A
:100AFC00094A0E211170A6E70028A6D1064A0F213B
:100B0C001170A2E70028A2D1034B10221A709EE7A5
:100B1C0075040020760400207404002010B50446EF
:100B2C0000F04CFB782000F08BFB00F06FFB4020BA
:100B3C0000F086FB00F06AFB204600F081FB00F021
:100B4C0065FB00F04FFB10BD10B5044600F036FB02
:100B5C00782000F075FB00F059FB002000F070FBD2
:100B6C0000F054FB204600F06BFB00F04FFB00F054
:100B7C0039FB10BD08B5012902D0FFF7E5FF08BD10
:100B8C00FFF7CCFFFBE710B50446A1F150000021A4
:100B9C00C0B2FFF7EFFF2009002140F01000FFF773
:100BAC00E9FF002104F00F00FFF7E4FF10BD000087
:100BBC00F8B507460E46203AD5B2102B05D0062BB9
:100BCC0026D0FFF7E0FF00243FE0FFF7DCFF002416
:100BDC0008E004EB05130121284AD05CFFF7CAFF9B
:100BEC000134E4B2072CF4D9711CC9B23846FFF7B2
:100BFC00CAFF002409E004EB0513083301211F4A46
:100C0C00D05CFFF7B7FF0134E4B2072CF3D933E023
:100C1C00FFF7B9FF00240AE005EB4503184A02EB85
:100C2C0043030121185DFFF7A5FF0134E4B2052C45
:100C3C00F2D921E004EB0513104AD05CC04301212A
:100C4C00C0B2FFF797FF0134E4B2072CF2D9711C44
:100C5C00C9B23846FFF797FF00240BE004EB0513ED
:100C6C000833064AD05CC0430121C0B2FFF782FFB3
:100C7C000134E4B2072CF1D9F8BD00BF8C3B00085D
:100C8C00683900082DE9F04104460E46174698468F
:100C9C00002501E00135EDB27A5D62B14346314683
:100CAC002046FFF785FF0834E4B2782CF2D90236DF
:100CBC00F6B20024EEE7BDE8F0810246012002E026
:100CCC0002FB00F019464B1EDBB20029F8D170472D
:100CDC002DE9F8438146884617461E469DF820505C
:100CEC0000241DE0680804FB00F0C0B20CF1300CCD
:100CFC0048442B465FFA8CF24146C0B2FFF758FFCE
:100D0C000CE005FB04F0C0B20CF1300C48442B464F
:100D1C005FFA8CF24146C0B2FFF74AFF0134E4B2ED
:100D2C00B44226D2311BC9B20139C9B20A20FFF72D
:100D3C00C4FFB7FBF0F0104AA2FB003C4FEADC0CFE
:100D4C000CEB8C0CA0EB4C0C5FFA8CFC102DC9D06E
:100D5C00062DD6D0680804FB00F0C0B20CF1300CA4
:100D6C0048442B465FFA8CF24146C0B2FFF720FF95
:100D7C00D4E7BDE8F88300BFCDCCCCCC2DE9F04F47
:100D8C0083B00646884614461D469DF830701046C2
:100D9C00FFF7AAFC8246FFF78DFA01462046FFF7C3
:100DAC00D3F981462F4BA3FB053C4FEADC0C0CEB33
:100DBC008C0CA5EB4C04E4B2611CC9B20A20FFF701
:100DCC007CFFFFF773FA4946FFF7C8FAFFF78CFC74
:100DDC008146102F04D0062F25D003B0BDE8F08F2C
:100DEC004FEA570B1F4BA3FB0535ED0806EB5700DD
:100DFC0000972B4652464146C0B2FFF769FF05FBF0
:100E0C000BB030443B462E224146C0B2FFF7D0FE19
:100E1C00023505FB0B60009723464A464146C0B29B
:100E2C00FFF756FFD9E73E44F6B20E4BA3FB053550
:100E3C00ED0800972B46524641463046FFF748FFD7
:100E4C003544EDB23B462E2241462846FFF7B0FE14
:100E5C000535009723464A464146E8B2FFF738FF6E
:100E6C00BBE700BFCDCCCCCC38B500250AE00121C6
:100E7C000020FFF77FFE0134E4B214F0800FF6D0AF
:100E8C000135EDB2072D05D829460020FFF77BFE72
:100E9C000024F2E738BD08B50021AE20FFF76AFE4A
:100EAC0000210846FFF766FE00211020FFF762FEC6
:100EBC0000214020FFF75EFE0021B020FFF75AFE14
:100ECC0000218120FFF756FE0021FF20FFF752FE84
:100EDC000021A120FFF74EFE0021C820FFF74AFE9B
:100EEC000021A620FFF746FE0021A820FFF742FEB6
:100EFC0000213F20FFF73EFE0021D320FFF73AFEF2
:100F0C0000210846FFF736FE0021D520FFF732FE00
:100F1C0000218020FFF72EFE0021D820FFF72AFEAB
:100F2C0000210520FFF726FE0021D920FFF722FE25
:100F3C000021F120FFF71EFE0021DA20FFF71AFE38
:100F4C0000211220FFF716FE0021DB20FFF712FE16
:100F5C0000213020FFF70EFE00218D20FFF70AFE46
:100F6C0000211420FFF706FE0021AF20FFF702FE40
:100F7C00FFF77AFF08BD00002DE9F047814688464F
:100F8C0017461D46FFF7FFFD002429E00AEB0A1364
:100F9C005A4A02EB4303334401219878FFF7EAFDE8
:100FAC000136F6B20F2EF1D908F10101C9B248464B
:100FBC00FFF7E9FD2E460BE00AEB0A134F4A02EB52
:100FCC004303334401219878FFF7D4FD0136F6B280
:100FDC001F2EF1D9202D1CD0022D53D00134E4B298
:100FEC00092C00F28880102DF4D1A24604EB0413D6
:100FFC00424A12F813203B789A42EBD104EB0413CB
:10100C003E4A02EB43035A787B789A42E2D100269F
:10101C00C8E7A24604EB0413394A12F813203B78B4
:10102C009A42D9D104EB0413354A02EB43035A78A4
:10103C007B789A42D0D100260BE00AEB0A13304A97
:10104C0002EB4303334401219878FFF793FD0136FB
:10105C00F6B20F2EF1D908F10101C9B24846FFF7DB
:10106C0092FD10260BE00AEB0A13254A02EB430310
:10107C00334401219878FFF77DFD0136F6B21F2E1F
:10108C00F1D9A9E7A24604EB04131E4A12F8132067
:10109C003B789A42A2D104EB04131A4A02EB4303A5
:1010AC005A787B789A4299D100260BE00AEB0A1306
:1010BC00144A02EB4303334401219878FFF75AFD9D
:1010CC000136F6B20F2EF1D908F10101C9B248462A
:1010DC00FFF759FD10260BE00AEB0A13094A02EB45
:1010EC004303334401219878FFF744FD0136F6B2EF
:1010FC001F2EF1D972E7BDE8F08700BFF03500086C
:10110C0034380008683700082DE9F04182B00446F5
:10111C000E4617469846002501E0A81CC5B2785D1E
:10112C0098B18DF804007B195B788DF80530434637
:10113C0001AA31462046FFF71FFF1034E4B2782C89
:10114C00EBD90236F6B20024E7E702B0BDE8F08135
:10115C002A2300BF1A46013B002AFAD1704700002F
:10116C0008B530B900224FF48071054800F0C0FE7C
:10117C0008BD01224FF48071014800F0B9FEF7E779
:10118C00000C014008B530B900224FF4007105483D
:10119C0000F0AEFE08BD01224FF40071014800F0D2
:1011AC00A7FEF7E7000C014008B54FF400710248A8
:1011BC0000F08AFE08BD00BF000C014008B50120FC
:1011CC00FFF7E0FF0120FFF7CBFFFFF7C1FF002087
:1011DC00FFF7D8FFFFF7BCFF0020FFF7C1FFFFF7B9
:1011EC00B7FF08BD08B50020FFF7CCFF0020FFF7C4
:1011FC00B7FFFFF7ADFF0120FFF7B2FFFFF7A8FF26
:10120C000120FFF7BFFFFFF7A3FF08BD38B5012092
:10121C00FFF7B8FF0120FFF7A3FF0024FFF7C4FF7F
:10122C00054638B10134E4B2FA2CF7D9FFF7DAFFEE
:10123C00012503E0FFF794FFFFF78AFF284638BD2E
:10124C0038B5044608220FE00020FFF79BFF64002E
:10125C00E4B2FFF77DFF0120FFF782FFFFF778FF75
:10126C000020FFF77DFF2A46531EDDB232B114F089
:10127C00800FE9D00120FFF785FFE8E738BD0000BB
:10128C002DE9F04188B00024049405940694079449
:10129C00334B9A6942F010029A619A6902F010027B
:1012AC000092009A9A6942F020029A619A6902F0BF
:1012BC0020020192019A9A6942F004029A619A6999
:1012CC0002F004020292029A9A6942F008029A61B0
:1012DC009B6903F008030393039BDFF88880224685
:1012EC004FF40051404600F003FE1F4E22464FF4CF
:1012FC007341304600F0FCFD4FF40053049301257C
:10130C00059506940227079704A9404600F028FC8F
:10131C004FF47043049305950695079704A930463E
:10132C0000F01EFC4FF41F4304930594069504A98A
:10133C000E4800F015FC082304930594069504A9A7
:10134C00304600F00DFC4FF4407304930595069461
:10135C00079704A9304600F003FC08B0BDE8F08103
:10136C000010024000100140000C01400008014038
:10137C0010B504460021FFF785F9D0B91249204673
:10138C00FFF78AF9B8B910492046FFF799F920B14F
:10139C000E492046FFF780F978B90D492046FFF732
:1013AC007BF960B109492046FFF78AF948B90D204D
:1013BC0000E00D2010BD0A20FCE70B20FAE70D2001
:1013CC00F8E70C20F6E700BF0000C84200007A44A2
:1013DC0000401C4610B5044602680A4B9A4208D0DD
:1013EC002368B3F1804F07D02268074B9A4206D08E
:1013FC0010BDFFF703FBF3E7FFF7D6F9F4E7FFF7B0
:10140C00FDF9F5E7002C01400004004072B6FEE740
:10141C0000B591B02822002106A802F015F800238F
:10142C0001930293039304930593012206924FF4C4
:10143C00803307930A9202220D920E934FF4E0131D
:10144C000F9306A800F086FD80B90F2301930221AB
:10145C000291002303934FF480620492059301A838
:10146C0001F054F820B911B05DF804FBFFF7CEFF82
:10147C00FFF7CCFFF0B583B000F0BEFAFFF7C8FF62
:10148C00FFF7FEFE00F048F900F080F900F0BAF921
:10149C006E4801F0F1F9FFF7FEFCFFF74BF90A2754
:1014AC000DE0FFF7E1FC374600E02F460A2F1CD079
:1014BC000B2F3CD00C2F6ED00D2F00F09980FFF726
:1014CC0049F9FFF779F90446FFF792FA05462046E9
:1014DC00FFF74EFF0646AF42E8D0FFF7C5FCB5421A
:1014EC00E3D00D2EDDD12F46E0E71023584A002122
:1014FC000846FFF709FE10250095032364220021FE
:10150C002020FFF7E5FB2B46524A00214020FFF735
:10151C00FBFD2B46504A02210020FFF7F5FD0095FC
:10152C001523224602214020FFF728FCC0E74B4937
:10153C002046FEF7C7FF04461023454A0021084603
:10154C00FFF7E2FD1025009501231A4600213020FB
:10155C00FFF7BEFB2B46424A00213720FFF792FBD8
:10156C002B463C4A00214020FFF7CEFD2B463A4A41
:10157C0002210020FFF7C8FD009501230022022163
:10158C004020FFF7A5FB00950323224602214620AD
:10159C00FFF7F4FB8EE731492046FEF793FF044634
:1015AC0010232B4A00210846FFF7AEFD10250095AD
:1015BC0002230A2200213020FFF78AFB2B46284AFF
:1015CC0000214620FFF75EFB2B46224A00215020CB
:1015DC00FFF79AFD2B46204A02210020FFF794FDCD
:1015EC0000950C23224602214020FFF7C7FB63E73E
:1015FC001A492046FEF766FF05461023144A0021BF
:10160C000846FFF781FD1024009403236422002177
:10161C003020FFF75DFB2346114A00214B20FFF7DA
:10162C0031FB23460B4A00215520FFF76DFD234665
:10163C00094A02210020FFF767FD009415232A4672
:10164C0002214020FFF79AFB39E700BF7804002005
:10165C007C410008844100088841000800007A445D
:10166C00944100087047000082B00E4B9A6942F01A
:10167C0001029A619A6902F001020092009ADA69F9
:10168C0042F08052DA61DB6903F080530193019BD5
:10169C00054A536823F0E06343F00073536002B0D3
:1016AC00704700BF0010024000000140FEE7FEE75B
:1016BC00FEE7FEE7FEE770477047704708B500F09D
:1016CC00ADF908BD08B5024801F05AF908BD00BFD4
:1016DC007804002008B5024801F052F908BD00BF9B
:1016EC007804002008B5024801F04AF908BD00BF93
:1016FC007804002008B5024801F042F908BD00BF8B
:10170C00C004002008B5024801F03AF908BD00BF3A
:10171C00080500207047000000B587B00023029335
:10172C00039304930593009301931648164A0260A1
:10173C0040F2CF224260836042F20F72C2600361BA
:10174C004361836101F014FA90B94FF48053029312
:10175C0002A90C4801F086FA68B9002300930193A2
:10176C006946084801F0E0FD40B907B05DF804FB9C
:10177C00FFF74CFEE9E7FFF749FEEEE7FFF746FE01
:10178C00F3E700BF78040020002C014000B589B0BD
:10179C0000230393049305930693079301930293F9
:1017AC0017484FF080420260436083604FF6FF722F
:1017BC00C26003618023836101F0DAF9B8B90723B1
:1017CC00039350230493022305930023079303A947
:1017DC000B4801F03FFD68B900230193029301A966
:1017EC00074801F0A1FD40B909B05DF804FBFFF713
:1017FC000DFEE4E7FFF70AFEEEE7FFF707FEF3E75F
:10180C00C004002000B587B0002302930393049317
:10181C000593009301931548154A02604FF43472F6
:10182C004260836044F61F62C2600361836101F011
:10183C009FF990B94FF48053029302A90B4801F021
:10184C0011FA68B90023009301936946074801F027
:10185C006BFD40B907B05DF804FBFFF7D7FDE9E776
:10186C00FFF7D4FDEEE7FFF7D1FDF3E70805002005
:10187C000004004000B589B000230493059306933F
:10188C0007930368324A934208D0B3F1804F28D0B3
:10189C00304A934248D009B05DF804FB2E4B9A694C
:1018AC0042F400629A619B6903F400630093009B0D
:1018BC0000221146182000F0E1F8182000F024F95D
:1018CC0000221146192000F0D9F8192000F01CF95B
:1018DC00002211461A2000F0D1F81A2000F014F959
:1018EC00D9E703F50433DA6942F00102DA61DA6907
:1018FC0002F001020192019A9A6942F004029A6183
:10190C009B6903F004030293029B0123049304A933
:10191C00124800F025F9002211461C2000F0AEF808
:10192C001C2000F0F1F8B6E70B4BDA6942F002022A
:10193C00DA61DB6903F002030393039B0022114677
:10194C001D2000F09BF81D2000F0DEF8A3E700BF7F
:10195C00002C01400004004000100240000801402F
:10196C000C480D490D4A002302E0D458C4500433EE
:10197C00C4188C42F9D30A4A0A4C002301E01360C4
:10198C000432A242FBD3FFF7C5FE01F039FDFFF78D
:10199C0071FD7047000000204C04002090430008AB
:1019AC004C04002058050020FEE7000010B504464A
:1019BC000E4B18784FF47A73B3FBF0F30C4A1068A3
:1019CC00B0FBF3F000F0B8F868B90F2C01D9012086
:1019DC000AE0002221464FF0FF3000F04FF8054B93
:1019EC001C60002000E0012010BD00BF140000208E
:1019FC00100000201800002008B5074A136843F0B7
:101A0C0010031360032000F01BF80F20FFF7CEFF2C
:101A1C00FFF72AFE002008BD00200240034A11688F
:101A2C00034B1B780B441360704700BF500500201C
:101A3C0014000020014B1868704700BF50050020AF
:101A4C0010B50446C31E042B0FD80A4AD36823F4DE
:101A5C00E0631B041B0C240204F4E064234343F0F6
:101A6C00BF6343F40033D36010BD92210248FFF7EB
:101A7C00F9FDEAE700ED00E0A841000870B5054665
:101A8C000C4616460F2A25D80F2C28D81B4BDB6882
:101A9C00C3F30223C3F10701042928BF04211A1D33
:101AAC00062A21D9033B4FF0FF3202FA01F124EA56
:101ABC0001049C4002FA03F326EA03063443002D8A
:101ACC0014DB2401E4B205F1604505F5614585F8A8
:101ADC00004370BDAA210A48FFF7C4FDD4E7AB212F
:101AEC000748FFF7BFFDD1E70023DCE705F00F0542
:101AFC002401E4B2034B5C55EBE700BF00ED00E0C2
:101B0C00A841000814ED00E010B5041E0ADB002CFF
:101B1C0007DB04F01F02640901239340044A42F8D6
:101B2C00243010BDBE210348FFF79CFDEFE700BF3A
:101B3C0000E100E0A84100080138B0F1807F0BD231
:101B4C004FF0E0235861054AF02182F82310002061
:101B5C00986107221A6170470120704700ED00E080
:101B6C002DE9F04383B007460E467D4B984213D0C7
:101B7C0003F5806398420FD003F5806398420BD035
:101B8C0003F58063984207D003F58063984203D035
:101B9C00BD217448FFF766FD33689AB212B11B0C75
:101BAC001B041BB1BE216F48FFF75CFD7368012B52
:101BBC001ED9112B1CD0022B1AD0122B18D06A4A0A
:101BCC00934215D002F58012934211D002F5801287
:101BDC0093420DD0A2F5F812934209D002F580126F
:101BEC00934205D002F58012934201D0032B03D10E
:101BFC004FF000094D46EDE0BF215A48FFF732FD8A
:101C0C00F6E75A4A934210D007D9594A93420CD05E
:101C1C0002F58032934208D018E0A2F5801293426C
:101C2C0003D002F5702293420CD1B368022B7FD8FB
:101C3C00B368002B00F08880012B7ED07C614FF0C4
:101C4C00080903E0A2F580129342EED0B8F1FF0F21
:101C5C007DD83846B8F1FF0F7BD8AA0003680F2156
:101C6C00914023EA010309FA02F2134303607368FB
:101C7C0013F0805F00F0AD803E4B9A6942F0010298
:101C8C009A619B6903F001030193019BAA08911CC3
:101C9C00394B53F8210005F0030399000F238B40B7
:101CAC0020EA03002E4B9F4268D003F580639F42CD
:101CBC0000F0E28003F580639F4200F0DF8003F5C3
:101CCC0080639F4249D0042359E0F368013B022B07
:101CDC0002D8D6F80C90B9E7D5212248FFF7C2FC00
:101CEC00F7E7F368013B022B03D8F36803F104090F
:101CFC00ACE7DC211B48FFF7B5FCF6E7F368013BCA
:101D0C00022B03D8F36803F108099FE7E321154878
:101D1C00FFF7A8FCF6E7F368013B022B03D8F36846
:101D2C0003F10C0992E7EA210E48FFF79BFCF6E75A
:101D3C00F7210C48FFF796FC7AE73C614FF0080955
:101D4C0084E74FF0000981E74FF004097EE7381D66
:101D5C0080E7A5F10802920080E703230FE000BFA3
:101D6C00000801400442000800001110000022107D
:101D7C0000003110001002400000014000238B4095
:101D8C00034302324C4941F82230736813F4803F0C
:101D9C0076D04A4A136843EA08031360736813F455
:101DAC00003F73D0454A536843EA08035360736895
:101DBC0013F4801F70D0414A936843EA0803936080
:101DCC00736813F4001F6DD03C4AD36843EA0803D0
:101DDC00D3600135336833FA05F269D00124AC4085
:101DEC0003EA040834EA0303F3D1354B9F4213D0C2
:101DFC0003F580639F420FD003F580639F420BD0A5
:101E0C0003F580639F4207D003F580639F4203D0A4
:101E1C00CD212C48FFF726FC7368122B3FF6F1AE50
:101E2C00122B3FF613AF01A252F823F0371C000817
:101E3C00D71C0008091D00084F1D0008591C00087C
:101E4C00591C0008591C0008591C0008591C000892
:101E5C00591C0008591C0008591C0008591C000882
:101E6C00591C0008591C0008591C0008591C000872
:101E7C00EF1C0008231D0008012380E702237EE7E6
:101E8C000E4A136823EA0803136087E70B4A53686A
:101E9C0023EA080353608AE7084A936823EA080395
:101EAC0093608DE7054AD36823EA0803D36090E773
:101EBC0003B0BDE8F08300BF000001400004014006
:101ECC00000801400442000838B504460D4621B113
:101EDC00A3681D4207D0012038BD4FF4DA710348C6
:101EEC00FFF7C0FBF4E70020F6E700BF0442000850
:101EFC0070B5054614460E4621B1012C08D86CB1BC
:101F0C002E6170BD4FF4EA710648FFF7ABFBF4E7A6
:101F1C0040F2D5110348FFF7A5FBF0E736042E611C
:101F2C00EFE700BF0442000882B0084B1B68084A68
:101F3C00A2FB03235B0A00FB03F3019300BF019B8D
:101F4C005A1E0192002BF9D102B0704710000020EC
:101F5C00D34D6210002800F0898270B582B004461F
:101F6C00036813B113F00F0F2AD0236813F0010F7D
:101F7C0040D063682BB1B3F5803F02D0B3F5A02FEE
:101F8C0024D19C4B5B6803F00C03042B29D0994B98
:101F9C005B6803F00C03082B1ED06368B3F5803F1D
:101FAC0055D0002B69D103F1804303F504331A6833
:101FBC0022F480321A601A6822F480221A604BE0F4
:101FCC0040F267118C48FFF74DFBCEE740F26D11E4
:101FDC008948FFF747FBD4E7864B5B6813F4803FD7
:101FEC00DBD0844B1B6813F4003F03D06368002BD9
:101FFC0000F03E82236813F0020F00F08980236901
:10200C00012B63D863691F2B66D87A4B5B6813F07E
:10201C000C0F6CD0774B5B6803F00C03082B61D072
:10202C002369002B00F09A80744B01221A60FFF791
:10203C0001FD05466F4B1B6813F0020F40F08580C5
:10204C00FFF7F8FC401B0228F4D9032015E2694A7B
:10205C00136843F480331360636843B3FFF7EAFCFF
:10206C000546644B1B6813F4003FC3D1FFF7E2FC39
:10207C00401B6428F5D90320FFE1B3F5A02F09D04C
:10208C005C4B1A6822F480321A601A6822F480229F
:10209C001A60E1E703F18043A3F53C331A6842F47C
:1020AC0080221A601A6842F480321A60D4E7FFF773
:1020BC00C1FC05464F4B1B6813F4003F9AD0FFF749
:1020CC00B9FC401B6428F5D90320D6E140F2A111DC
:1020DC004948FFF7C7FA95E74FF4D1714648FFF727
:1020EC00C1FA92E7434B5B6813F4803F98D1414BA4
:1020FC001B6813F0020F03D02369012B40F0BA8147
:10210C003C4A136823F0F803616943EAC103136086
:10211C00236813F0080F3CD0A369012B30D8A369B6
:10212C00002B6FD0354B0122C3F88024FFF782FCC3
:10213C000546304B5B6A13F0020F27D1FFF77AFC90
:10214C00401B0228F5D9032097E12A4A136823F093
:10215C00F803616943EAC1031360D9E7274B0022F6
:10216C001A60FFF767FC0546224B1B6813F0020F41
:10217C00CED0FFF75FFC401B0228F5D903207CE191
:10218C004FF4F1711C48FFF76DFAC8E70120FFF717
:10219C00CBFE236813F0040F00F0A480E368012B3E
:1021AC0001D9052B41D1134BDB6913F0805F42D170
:1021BC00104BDA6942F08052DA61DB6903F080532C
:1021CC000193019B01250E4B1B6813F4807F34D0C7
:1021DC00E368012B45D0002B5BD103F1804303F561
:1021EC0004331A6A22F001021A621A6A22F00402FB
:1021FC001A623BE0001002406042000800004242BC
:10220C0000700040A14B0022C3F88024FFF712FCA1
:10221C0005469F4B5B6A13F0020FBAD0FFF70AFC1E
:10222C00401B0228F5D9032027E140F211219948DF
:10223C00FFF718FAB7E70025C5E7974A136843F488
:10224C0080731360FFF7F6FB0646934B1B6813F481
:10225C00807FBDD1FFF7EEFB801B6428F5D90320EE
:10226C000BE18B4A136A43F001031362E36833B347
:10227C00FFF7E0FB0646864B1B6A13F0020F2FD1CB
:10228C00FFF7D8FB801B41F288339842F3D9032027
:10229C00F3E0052B09D07E4B1A6A22F001021A6278
:1022AC001A6A22F004021A62E0E7794B1A6A42F0C9
:1022BC0004021A621A6A42F001021A62D6E7FFF7A8
:1022CC00B9FB0646724B1B6A13F0020F08D0FFF7DE
:1022DC00B1FB801B41F288339842F3D90320CCE048
:1022EC00002D53D1E369022B56D8E369002B00F083
:1022FC00C380674A526802F00C02082A00F0A680DC
:10230C00022B40F08F80236A13B1B3F5803F49D183
:10231C00636A4BB3B3F5802F26D0B3F5002F23D0CF
:10232C00B3F5402F20D0B3F5801F1DD0B3F5A01FFF
:10233C001AD0B3F5C01F17D0B3F5E01F14D0B3F506
:10234C00001F11D0B3F5101F0ED0B3F5201F0BD00A
:10235C00B3F5301F08D0B3F5401F05D0B3F5501FAF
:10236C0002D0B3F5601F23D1484B00221A66FFF749
:10237C0061FB0546464B1B6813F0007F1ED0FFF730
:10238C0059FB401B0228F5D9032076E0404AD3695B
:10239C0023F08053D361A5E740F2AF213D48FFF70E
:1023AC0061F9A2E74FF42E713A48FFF75BF9AFE7FA
:1023BC0040F2B9213748FFF755F9D5E7236AB3F551
:1023CC00803F1AD032494B6823F47413226A606A36
:1023DC00024313434B602D4B01221A66FFF72AFB75
:1023EC0004462B4B1B6813F0007F19D1FFF722FB1F
:1023FC00001B0228F5D903203FE0A36813B1B3F505
:10240C00003F07D1224A536823F40033A1680B43E1
:10241C005360D7E740F2CF211E48FFF723F9F1E7CD
:10242C0000202AE0194B00221A66FFF703FB044632
:10243C00174B1B6813F0007F06D0FFF7FBFA001B4D
:10244C000228F5D9032018E0002016E0012B16D045
:10245C000F4B5B6803F48031226A914211D103F473
:10246C007013626A93420ED1002006E0012070477F
:10247C00012002E0012000E0002002B070BD01202C
:10248C00FBE70120F9E70120F7E700BF000042421B
:10249C0000100240604200080070004086B0174BEC
:1024AC000FCB0DF1180C0CE90F0040F20123ADF825
:1024BC000430134B5B6803F00C02082A02D011485D
:1024CC0006B07047C3F3834218326A4412F8100CFA
:1024DC0013F4803F0DD00A4B5B68C3F340431833B1
:1024EC006B4413F8143C074A02FB00F0B0FBF3F00A
:1024FC00E6E7054B03FB00F0E2E700BFB84200083B
:10250C000010024000127A0000093D00002800F083
:10251C00FC8070B50D460446036813F00F0F6DD0A8
:10252C00022D71D87D4B1B6803F00703AB420BD215
:10253C007A4A136823F007032B431360136803F0E4
:10254C000703AB4240F0E380236813F0020F29D05D
:10255C0013F0040F04D0724A536843F4E0635360E1
:10256C00236813F0080F04D06D4A536843F460538A
:10257C005360A3687BB1802B0DD0902B0BD0A02B7C
:10258C0009D0B02B07D0C02B05D0D02B03D0E02B1B
:10259C0001D0F02B3ED1624A536823F0F003A168BE
:1025AC000B435360236813F0010F4DD06368022B6B
:1025BC0036D86368012B39D0022B3ED0584A1268AA
:1025CC0012F0020F00F0A58055494A6822F0030270
:1025DC0013434B60FFF72EFA0646514B5B6803F032
:1025EC000C036268B3EB820F2ED0FFF723FA801B2B
:1025FC0041F288339842F0D9032079E04FF44E71C0
:10260C004848FFF72FF88BE740F239314548FFF780
:10261C0029F887E740F25F314248FFF723F8BAE721
:10262C0040F266313F48FFF71DF8C2E73C4A12689A
:10263C0012F4003FC8D101205AE0394A126812F056
:10264C00007FC1D1012053E0344B1B6803F007031A
:10265C00AB420AD9314A136823F007032B431360AA
:10266C00136803F00703AB4255D1236813F0040F32
:10267C0014D0E3685BB1B3F5806F08D0B3F5A06FED
:10268C0005D0B3F5C06F02D0B3F5E06F31D1244A59
:10269C00536823F4E063E1680B435360236813F041
:1026AC00080F15D023695BB1B3F5806F08D0B3F573
:1026BC00A06F05D0B3F5C06F02D0B3F5E06F1ED19B
:1026CC00174A536823F46053216943EAC1035360EA
:1026DC00FFF7E4FE124B5B68C3F30313124AD35C9F
:1026EC00D840124B1860124B1868FFF75FF90020A6
:1026FC0070BD4FF469710B48FEF7B4FFC7E740F2A9
:10270C00AB310848FEF7AEFFDAE701207047012035
:10271C00EEE70120ECE70120EAE700BF00200240D1
:10272C000010024060420008984100081000002090
:10273C001800002010B4036A046A24F00104046237
:10274C00846924F0F00C4CEA021223F00A030B43C8
:10275C008261036210BC704710B4046A24F0100448
:10276C0004628469036A24F4704C4CEA023223F04C
:10277C00A00343EA01138261036210BC70478368B3
:10278C0023F070030B4343F0070383607047000092
:10279C0010B5044603681F4A93420FD0B3F1804F23
:1027AC000CD0A2F59432934208D002F58062934289
:1027BC0004D04FF4CA711848FEF754FF94F83D301A
:1027CC00DBB2012B22D1022384F83D302368114A5D
:1027DC00934210D0B3F1804F0DD0A2F594329342B6
:1027EC0009D002F58062934205D01A6842F00102CA
:1027FC001A6000200BE09A6802F00702062A07D044
:10280C001A6842F001021A60002000E0012010BD9D
:10281C000020FCE7002C0140CC42000810B5044617
:10282C000368134A93420FD0B3F1804F0CD0A2F53A
:10283C009432934208D002F58062934204D040F265
:10284C00B9110C48FEF70EFF2368196A41F21112F8
:10285C00114208D1196A40F24442114203D11A685C
:10286C0022F001021A60012384F83D30002010BDD3
:10287C00002C0140CC42000810B504460368224AE3
:10288C0093420FD0B3F1804F0CD0A2F59432934207
:10289C0008D002F58062934204D040F2CF111B485D
:1028AC00FEF7E0FE94F83D30DBB2012B27D102237A
:1028BC0084F83D302268D36843F00103D360236869
:1028CC00114A934210D0B3F1804F0DD0A2F594323F
:1028DC00934209D002F58062934205D01A6842F007
:1028EC0001021A6000200BE09A6802F00702062A27
:1028FC0007D01A6842F001021A60002000E00120A3
:10290C0010BD0020FCE700BF002C0140CC420008A9
:10291C0010B504460368164A93420FD0B3F1804FAA
:10292C000CD0A2F59432934208D002F58062934207
:10293C0004D040F2F7110F48FEF794FE2268D368DA
:10294C0023F00103D3602368196A41F2111211427A
:10295C0008D1196A40F24442114203D11A6822F09C
:10296C0001021A60012384F83D30002010BD00BF25
:10297C00002C0140CC4200087047704770477047EC
:10298C0010B5044603681A6912F0020F11D0DA6808
:10299C0012F0020F0DD06FF002021A6101230377BF
:1029AC0003689B6913F0030F70D0FFF7E6FF002359
:1029BC00237723681A6912F0040F12D0DA6812F028
:1029CC00040F0ED06FF004021A61022323772368E0
:1029DC009B6913F4407F5FD02046FFF7CEFF0023A6
:1029EC00237723681A6912F0080F12D0DA6812F0F4
:1029FC00080F0ED06FF008021A61042323772368A6
:102A0C00DB6913F0030F4ED02046FFF7B6FF00230F
:102A1C00237723681A6912F0100F12D0DA6812F0BB
:102A2C00100F0ED06FF010021A6108232377236861
:102A3C00DB6913F4407F3DD02046FFF79EFF002357
:102A4C00237723681A6912F0010F03D0DA6812F0A9
:102A5C00010F36D123681A6912F0800F03D0DA689F
:102A6C0012F0800F34D123681A6912F0400F03D092
:102A7C00DA6812F0400F32D123681A6912F0200F75
:102A8C0003D0DA6812F0200F30D110BDFFF774FFBD
:102A9C002046FFF773FF8AE72046FFF76DFF2046BD
:102AAC00FFF76CFF9BE72046FFF766FF2046FFF71A
:102ABC0065FFACE72046FFF75FFF2046FFF75EFFA0
:102ACC00BDE76FF001021A612046FEF783FCC1E7F7
:102ADC006FF080021A61204600F091FCC3E76FF0A2
:102AEC0040021A612046FFF74AFFC5E76FF020024B
:102AFC001A61204600F082FCC7E7000003681B4AFD
:102B0C0090420AD0B0F1804F07D0A2F59432904297
:102B1C0003D002F58062904203D123F070034A681F
:102B2C001343124A90420AD0B0F1804F07D0A2F55D
:102B3C009432904203D002F58062904203D123F488
:102B4C004073CA68134323F080034A69134303603C
:102B5C008B68C3620B688362044B984202D00123DA
:102B6C00436170470B690363F9E700BF002C014018
:102B7C00002865D010B504460368324A93420FD042
:102B8C00B3F1804F0CD0A2F59432934208D002F5E9
:102B9C008062934204D040F213112B48FEF762FD81
:102BAC00A3683BB1102B05D0202B03D0402B01D0B8
:102BBC00602B2DD123692BB1B3F5807F02D0B3F5F7
:102BCC00007F2BD1A3690BB1802B2DD194F83D3014
:102BDC0083B3022384F83D30214651F8040BFFF7F0
:102BEC008DFF012384F8463084F83E3084F83F3062
:102BFC0084F8403084F8413084F8423084F8433013
:102C0C0084F8443084F8453084F83D30002010BD01
:102C1C004FF48A710C48FEF725FDCBE740F21511F5
:102C2C000948FEF71FFDCDE74FF48B710648FEF700
:102C3C0019FDCBE784F83C302046FEF71BFEC8E7B5
:102C4C0001207047002C0140CC42000810B484686D
:102C5C0024F47F4C42EA03220A4342EA0C028260CB
:102C6C0010BC704738B590F83C30012B00F0BA819D
:102C7C0004460D46012380F83C30022380F83D3099
:102C8C000B68B3F5805F11D0B3F5005F0ED06BB15C
:102C9C00102B0BD0202B09D0302B07D0402B05D07C
:102CAC00502B03D0602B01D0702B3DD12268936840
:102CBC0023F47F4323F0770393602B68602B00F0A1
:102CCC0025815FD8402B00F0578133D9502B36D15A
:102CDC0023688C4A93420FD0B3F1804F0CD0A2F5ED
:102CEC009432934208D002F58062934204D041F2B0
:102CFC0071418548FEF7B6FC6B68B3F5004F05D003
:102D0C0023B1022B02D00A2B40F0EF80EB680F2B83
:102D1C0000F2F180EA6869682068FFF70BFD50212A
:102D2C002068FFF72CFD0AE041F232417648FEF7AD
:102D3C0099FCBBE7202B0CD008D9302B09D00123F0
:102D4C0084F83D30002084F83C0038BD0BB1102BCA
:102D5C00F5D123686B4A93420FD0B3F1804F0CD05E
:102D6C00A2F59432934208D002F58062934204D0CB
:102D7C0041F2A4416448FEF775FC29682068FFF70E
:102D8C00FEFCDCE7B3F5805F72D0B3F5005F36D1A3
:102D9C0023685C4A93420FD0B3F1804F0CD0A2F55C
:102DAC009432934208D002F58062934204D041F2EF
:102DBC005D415548FEF756FCAB6843B1B3F5805FF7
:102DCC0005D0B3F5005F02D0B3F5405F7BD16B68E3
:102DDC00B3F5004F04D01BB1022B01D00A2B78D1D4
:102DEC00EB680F2B7BD8EB686A68A9682068FFF743
:102DFC002DFF2268936843F4804393609FE7702B08
:102E0C009DD123683F4A93420FD0B3F1804F0CD031
:102E1C00A2F59432934208D002F58062934204D01A
:102E2C0041F245413848FEF71DFCAB6843B1B3F5A0
:102E3C00805F05D0B3F5005F02D0B3F5405F30D1B1
:102E4C006B68B3F5004F04D01BB1022B01D00A2BD9
:102E5C002DD1EB680F2B30D8EB686A68A968206815
:102E6C00FFF7F4FE2268936843F07703936066E7FC
:102E7C002368244A93423FF462AFB3F1804F3FF48E
:102E8C005EAFA2F5943293423FF459AF02F58062E3
:102E9C0093423FF454AF41F23E411B48FEF7E2FB34
:102EAC004DE741F248411848FEF7DCFBC8E741F218
:102EBC0049411548FEF7D6FBCBE741F24A4112488F
:102ECC00FEF7D0FBC8E74FF4A3510F48FEF7CAFB3F
:102EDC007DE741F261410C48FEF7C4FB80E741F20B
:102EEC0062410948FEF7BEFB7DE741F2744106489A
:102EFC00FEF7B8FB0AE741F275410348FEF7B2FB57
:102F0C0008E700BF002C0140CC4200082368364A79
:102F1C0093420FD0B3F1804F0CD0A2F59432934270
:102F2C0008D002F58062934204D041F281412F48CF
:102F3C00FEF798FB6B68B3F5004F04D01BB1022B66
:102F4C0001D00A2B0CD1EB680F2B0FD8EA686968FB
:102F5C002068FFF701FC60212068FFF710FCEEE60B
:102F6C0041F284412148FEF77DFBECE741F28541BB
:102F7C001E48FEF777FBE9E723681B4A93420FD004
:102F8C00B3F1804F0CD0A2F59432934208D002F5E5
:102F9C008062934204D041F291411448FEF762FBE7
:102FAC006B68B3F5004F04D01BB1022B01D00A2B78
:102FBC000CD1EB680F2B0FD8EA6869682068FFF713
:102FCC00B9FB40212068FFF7DAFBB8E641F29441E7
:102FDC000648FEF747FBECE741F295410348FEF744
:102FEC0041FBE9E70220B0E6002C0140CC4200088E
:102FFC0038B505460C4601688A6822F07002636891
:10300C00134323F00703226813438B606368502B30
:10301C0000F0A98038D9602B00F0D880702B40F0DC
:10302C0008810368894A93420FD0B3F1804F0CD0CA
:10303C00A2F59432934208D002F58062934204D0F8
:10304C0041F65C318248FEF70DFBE36843B1B3F502
:10305C00805F05D0B3F5005F02D0B3F5405F3ED181
:10306C00A368B3F5004F04D01BB1022B01D00A2B7F
:10307C003BD123690F2B3ED82369A268E1682868ED
:10308C00FFF7E4FD002003E0402B3AD001D90020EB
:10309C0038BD202B07D003D9302B04D00020F7E704
:1030AC000BB1102B19D12B68684A934200F0C580E4
:1030BC00B3F1804F00F0C380A2F59432934200F03C
:1030CC00C08002F58062934200F0BD8041F6A431CD
:1030DC005F48FEF7C7FA0020DAE70020D8E741F690
:1030EC005D315B48FEF7BEFABAE741F65E315848EF
:1030FC00FEF7B8FABDE741F65F315548FEF7B2FA74
:10310C00BAE70368514A93420FD0B3F1804F0CD009
:10311C00A2F59432934208D002F58062934204D017
:10312C0041F66B314A48FEF79DFA23690F2B14D8F0
:10313C002368052B7FD02B68196A1A6A22F00102CA
:10314C001A622A68936923F0F003206943EA00139A
:10315C0093612B68196200209AE741F66C313C4868
:10316C00FEF780FAE4E70368384A93420FD0B3F1D4
:10317C00804F0CD0A2F59432934208D002F58062B5
:10318C00934204D041F685313148FEF76BFAA368BF
:10319C00B3F5004F04D01BB1022B01D00A2B09D17F
:1031AC0023690F2B0CD82269A1682868FFF7C2FA93
:1031BC0000206DE741F686312548FEF753FAEFE71C
:1031CC0041F687312248FEF74DFAECE703681F4AB7
:1031DC0093420FD0B3F1804F0CD0A2F594329342AE
:1031EC0008D002F58062934204D041F6933118481E
:1031FC00FEF738FAA368B3F5004F04D01BB1022BCD
:10320C0001D00A2B09D123690F2B0CD82269A16894
:10321C002868FFF7A1FA00203AE741F694310C48F0
:10322C00FEF720FAEFE741F695310948FEF71AFA56
:10323C00ECE700202CE701202AE7002028E70020FB
:10324C0026E7002024E7002022E700BF002C0140E5
:10325C00CC42000838B504460D460368304A934208
:10326C000FD0B3F1804F0CD0A2F59432934208D01A
:10327C0002F58062934204D041F2E3412948FEF703
:10328C00F1F92B683BB1042B05D0052B03D0062B91
:10329C0001D0072B2FD16B686BB1102B0BD0202BCF
:1032AC0009D0302B07D0402B05D0502B03D0602BEE
:1032BC0001D0702B25D194F83C30012B2ED001235A
:1032CC0084F83C30022384F83D3029462046FFF731
:1032DC008FFEE0B92268D36823F04003D3602268E4
:1032EC00D36823F48043D360012384F83D3000235A
:1032FC0084F83C3038BD41F2E4410A48FEF7B2F99B
:10330C00C9E741F2E5410748FEF7ACF9D3E70120E4
:10331C0084F83D00002384F83C30EBE70220E9E719
:10332C00002C0140CC42000838B504460D46036819
:10333C00304A93420FD0B3F1804F0CD0A2F59432A7
:10334C00934208D002F58062934204D040F2867119
:10335C002948FEF787F92B686BB1102B0BD0202B6B
:10336C0009D0302B07D0402B05D0502B03D0602B2D
:10337C0001D0702B30D16B68802B00D093BB94F8AC
:10338C003C30012B34D0012384F83C30022384F8E8
:10339C003D3023685968986821F070012A680A4307
:1033AC005A602368134A93420AD0B3F1804F07D076
:1033BC00A2F59432934203D002F58062934204D179
:1033CC0020F080006A6810439860012384F83D3037
:1033DC00002084F83C0038BD40F287710648FEF7A7
:1033EC0041F9C8E74FF4F1610348FEF73BF9C6E732
:1033FC000220F0E7002C014024430008704770477E
:10340C0070B50D4E0D4D761BB61006D0002455F838
:10341C00043B01349847A642F9D1094E094D00F0FE
:10342C00D5F8761BB61006D0002455F8043B0134B1
:10343C009847A642F9D170BD844300088443000824
:10344C008C43000884430008830730B548D0541ED1
:10345C00002A3FD00346CAB201E0013C3AD303F83C
:10346C00012B9D07F9D1032C2DD9CDB245EA0525A9
:10347C000F2C45EA054536D9A4F1100222F00F0CA9
:10348C0003F1200EE6444FEA121C03F1100242E94C
:10349C00045542E9025510327245F8D10CF1010283
:1034AC0014F00C0F03EB021204F00F0C13D0ACF160
:1034BC00040323F003030433134442F8045B9342E4
:1034CC00FBD10CF003042CB1CAB21C4403F8012B41
:1034DC009C42FBD130BD64461346002CF4D1F9E775
:1034EC0003461446BFE71A46A446E0E7024B13B165
:1034FC00024800F005B870470000000019350008BC
:10350C00002301461A46184600F01AB838B5084B85
:10351C00084D5B1B9C1007D0043B1D44013C55F827
:10352C0004399847002CF9D1BDE8384000F054B864
:10353C00904300088C430008704700BF704700BFE1
:10354C002DE9F047DFF87CA00646DAF80000984633
:10355C000F469146FFF7F0FF1B4B1B68D3F8484111
:10356C0024B365681F2D26DC5EB96B1C0235DAF8B6
:10357C000000636044F82570FFF7E0FF0020BDE811
:10358C00F087012304EB8501C1F88890D4F88821D9
:10359C00AB401A43022EC4F88821C1F80881E4D14B
:1035AC00D4F88C211343C4F88C31DEE703F5A674F0
:1035BC00C3F84841D5E7DAF80000FFF7BFFF4FF03A
:1035CC00FF30DCE74804002080430008F8B500BF5A
:1035DC00F8BC08BC9E467047F8B500BFF8BC08BCE8
:0435EC009E46704740
:1035F000C0EE8084444424140CFF0C1424444484FE
:10360000800008080808094989790D0B090808088D
:10361000080098538082442800FC262524FC0028BA
:103620004482000044442424140D05FF050D142495
:1036300024444400C1BF202020BEAAAAAAAAAAAA44
:10364000AABE20202000008080AFAAAAAAFFAAAAB2
:10365000AAAF80800000B3CC2424A4FE2322003E25
:1036600022222222223E0000080601FF01064049D4
:1036700049497F4949494100D7E800FE0222DA065C
:1036800000FE22222222FE00000000FF0810084750
:10369000407F424242427F404000D6B5008060F801
:1036A0000704E4A4A4BFA4A4E4040000010000FFF4
:1036B00040407F4A4A4A4A4A7F404000A6B80080BC
:1036C0004020101010102040800000000000006713
:1036D0004850600000605048670000000000B5E7F7
:1036E0000000F888888888FF88888888F8000000AB
:1036F00000001F080808087F888888889F80F000DD
:10370000B4F320202020202020FF20202020202073
:10371000200080804020100C0300030C102040800B
:103720008000D0A1000000E0000000FF00000020A9
:1037300040800000080403000040807F000000007B
:1037400000010E003A000000C0C0000000000000B0
:10375000000000000000000006060000000000005D
:103760000000000000000000A1E6060909E6F80CD0
:10377000040202020202041E0000000000071F30C3
:1037800020404040404020100000A848000018247D
:10379000241802FE828282E2061E00000000000061
:1037A0000000203F2000000300000000B5A500003D
:1037B000F8494A4C48F8484C4A49F80000001010B3
:1037C0001312121212FF1212121213101000CEBB9B
:1037D000008060F80710901011161010D010000033
:1037E000010000FF4040415E4040704E41404000BB
:1037F000C4D600F8012220222AF22222222202FE2E
:10380000000000FF00001F01017F09110F40807FB1
:103810000000C1E54030EF24244020100C23CC10E0
:103820002040400001017F21110001091121D10D2B
:1038300003000000D6F7FFF7F7F7F7F7F605F7F7FD
:10384000F7F7F7F7FFFFBFBFBEBEBEBEBE80BEBE6E
:10385000BEBEBEBFBFFFBDE7FFFFFF016D6D6D01C7
:103860006D6D6D01FFFFFFFFF7F7FB7B9DE1FEFF35
:10387000FE01FDFBFBF7F7FFC3E6FDFD1DDDDD0DE2
:10388000D1DDDD1DDDDD1DFDFDFFFFFF00BFBF80C4
:10389000B6B6B680BFBF00FFFFFFC9E8BFBFBD33EC
:1038A000FFBF5F617D7D7D615FDFDFFFFFFFFFC0E9
:1038B0006F77BFBCD3EFD7B9BE7F7FFFCAB1FF031D
:1038C0007B7B7B03FFEFEFEFEFEF00EFEFFFFFC03E
:1038D000EFEFEFC0FFFFFEF9BF7F80FFFFFFB2E217
:1038E000EF9FFD73FF01FD0DFD01FF07FF00FFFFCF
:1038F000FBFB81FE7FB8CFF0EFD8FFB87F80FFFFE2
:10390000BEE0FFC1DD1DDDC1FF01DDDDDDDDDD1D53
:10391000FDFFDFC0DFE0EEEEFF80BBBBBBBBBBB893
:10392000BFFFB2B6EFEFEF00EF6B1BDBDB00DBDBC3
:10393000DA19FBFFFBBB7D80FEFF00F6F680F6B6D2
:103940007680FFFFBBF1FBEB5BBB50EBFBFBFB0BA4
:10395000F0DBBBFBFBFFEDB67BBDC07EBECEF2FC59
:10396000F2CEBE7E7EFF00000000000000000000DE
:10397000002F000000000700070000147F147F14D0
:1039800000242A7F2A122313086462000036495556
:10399000225000000503000000001C22410000002E
:1039A00041221C000014083E08140008083E0808C4
:1039B000000000A06000000808080808000060601F
:1039C0000000002010080402003E5149453E00005E
:1039D000427F4000004261514946002141454B3140
:1039E000001814127F10002745454539003C4A490C
:1039F000493000017109050300364949493600067E
:103A00004949291E000036360000000056360000E5
:103A10000008142241000014141414140000412260
:103A2000140800020151090600324959513E007C38
:103A30001211127C007F49494936003E4141412222
:103A4000007F4141221C007F49494941007F09090B
:103A50000901003E4149497A007F0808087F0000BB
:103A6000417F4100002040413F01007F0814224176
:103A7000007F40404040007F020C027F007F04082E
:103A8000107F003E4141413E007F09090906003E8A
:103A90004151215E007F09192946004649494931B3
:103AA0000001017F0101003F4040403F001F2040D6
:103AB000201F003F4038403F006314081463000794
:103AC0000870080700615149454300007F414100EB
:103AD00000552A552A55000041417F00000402018B
:103AE0000204004040404040000001020400002069
:103AF00054545478007F48444438003844444420A7
:103B000000384444487F00385454541800087E0953
:103B100001020018A4A4A47C007F0804047800001B
:103B2000447D4000004080847D00007F10284400D8
:103B30000000417F4000007C04180478007C0804E9
:103B4000047800384444443800FC24242418001825
:103B5000242418FC007C0804040800485454542011
:103B600000043F444020003C4040207C001C20409A
:103B7000201C003C4030403C004428102844001CDD
:103B8000A0A0A07C004464544C440000000000004D
:103B9000000000000000000000000000000000F82D
:103BA00000000000000000333000000000100C0690
:103BB000100C0600000000000000000040C078402B
:103BC000C0784000043F04043F040400007088FCF7
:103BD00008300000001820FF211E0000F008F0004F
:103BE000E018000000211C031E211E0000F00888C0
:103BF000700000001E2123241927211010160E002A
:103C0000000000000000000000000000000000E0D4
:103C100018040200000000071820400000020418E9
:103C2000E00000000040201807000000404080F045
:103C3000804040000202010F01020200000000F07B
:103C4000000000000101011F01010100000000004F
:103C50000000000080B070000000000000000000C4
:103C6000000000000001010101010101000000004D
:103C700000000000003030000000000000000000E4
:103C800080601804006018060100000000E01008C1
:103C90000810E000000F102020100F00001010F896
:103CA000000000000020203F2020000000700808D5
:103CB0000888700000302824222130000030088855
:103CC000884830000018202020110E000000C0207D
:103CD00010F8000000070424243F240000F808889E
:103CE000880808000019212020110E0000E010882B
:103CF00088180000000F112020110E00003808085D
:103D0000C83808000000003F00000000007088086C
:103D100008887000001C222121221C0000E01008ED
:103D20000810E0000000312222110F00000000C046
:103D3000C0000000000000303000000000000080E3
:103D400000000000000080600000000000008040D3
:103D500020100800000102040810200040404040EC
:103D6000404040000404040404040400000810203F
:103D70004080000000201008040201000070480884
:103D80000808F0000000003036010000C030C828EC
:103D9000E810E0000718272423140B000000C038A7
:103DA000E0000000203C23020227382008F8888821
:103DB00088700000203F202020110E00C03008082D
:103DC00008083800071820202010080008F8080804
:103DD0000810E000203F202020100F0008F88888FD
:103DE000E8081000203F20202320180008F88888C9
:103DF000E8081000203F200003000000C030080841
:103E00000838000007182020221E020008F80800C9
:103E10000008F808203F210101213F20000808F890
:103E2000080800000020203F2020000000000808B3
:103E3000F8080800C08080807F00000008F888C073
:103E400028180800203F20012638200008F8080024
:103E500000000000203F20202020300008F8F8005B
:103E6000F8F80800203F003F003F200008F830C06D
:103E70000008F808203F200007183F00E01008085D
:103E80000810E0000F10202020100F0008F808088C
:103E90000808F000203F210101010000E01008089F
:103EA0000810E0000F18242438504F0008F88888C4
:103EB00088887000203F2000030C302000708808A4
:103EC000080838000038202121221C00180808F8B2
:103ED000080818000000203F2000000008F8080033
:103EE0000008F808001F202020201F000878880004
:103EF00000C83808000007380E010000F80800F874
:103F00000008F800033C0700073C0300081868801D
:103F10008068180820302C03032C30200838C80093
:103F2000C83808000000203F2000000010080808E2
:103F3000C83808002038262120201800000000FE84
:103F4000020202000000007F40404000000C30C030
:103F500000000000000000010638C000000202025C
:103F6000FE000000004040407F000000000004020E
:103F70000202040000000000000000000000000039
:103F80000000000080808080808080800002020429
:103F90000000000000000000000000000000808021
:103FA000808000000019242222223F2008F800808F
:103FB00080000000003F112020110E000000008052
:103FC00080800000000E11202020110000000080E1
:103FD0008088F800000E112020103F200000808013
:103FE00080800000001F222222221300008080F027
:103FF000888888180020203F202000000000808052
:1040000080808000006B94949493600008F8008096
:1040100080800000203F210000203F2000809898F1
:10402000000000000020203F202000000000008051
:104030009898000000C08080807F000008F8000091
:1040400080808000203F24022D302000000808F8E6
:10405000000000000020203F2020000080808080A1
:1040600080808000203F20003F20003F8080008033
:1040700080800000203F210000203F200000808041
:1040800080800000001F202020201F0080800080F2
:104090008000000080FFA12020110E0000000080A1
:1040A00080808000000E112020A0FF808080800092
:1040B0008080800020203F212000010000008080BF
:1040C000808080000033242424241900008080E0B4
:1040D000808000000000001F202000008080000081
:1040E00000808000001F202020103F208080800062
:1040F0000080808000010E30080601008080008072
:10410000008080800F300C030C300F000080800096
:10411000808080000020312E0E31200080808000C1
:104120000080808080818E70180601000080808071
:10413000808080000021302C22213000000000000F
:10414000807C020200000000003F404000000000B0
:10415000FF00000000000000FF0000000002027CE1
:10416000800000000040403F000000000006010108
:10417000020204040000000000000000C1BFB3CC34
:1041800000000000A6B80000B5E7D7E8B4F3D0A15E
:10419000A3BA00006B000000000000000000000057
:1041A0000102030406070809443A5C7374756479D4
:1041B0005C73746D33325F70726F6A6563745C49EF
:1041C0006D6167696E655F4375705C4472697665A1
:1041D00072735C53544D3332463178785F48414CAA
:1041E0005F4472697665725C5372635C73746D339D
:1041F00032663178785F68616C5F636F727465787E
:104200002E630000443A5C73747564795C73746D5A
:1042100033325F70726F6A6563745C496D616769A0
:104220006E655F4375705C447269766572735C534A
:10423000544D3332463178785F48414C5F4472695F
:104240007665725C5372635C73746D333266317879
:10425000785F68616C5F6770696F2E6300000000B3
:10426000443A5C73747564795C73746D33325F7057
:10427000726F6A6563745C496D6167696E655F43FF
:1042800075705C447269766572735C53544D333259
:10429000463178785F48414C5F4472697665725C5C
:1042A0005372635C73746D3332663178785F686122
:1042B0006C5F7263632E630002030405060708093E
:1042C0000A0B0C0D0E0F101000000000443A5C7336
:1042D000747564795C73746D33325F70726F6A6584
:1042E00063745C496D6167696E655F4375705C44BA
:1042F0007269766572735C53544D33324631787807
:104300005F48414C5F4472697665725C5372635CCE
:1043100073746D3332663178785F68616C5F74698D
:104320006D2E6300443A5C73747564795C73746DCC
:1043300033325F70726F6A6563745C496D6167697F
:104340006E655F4375705C447269766572735C5329
:10435000544D3332463178785F48414C5F4472693E
:104360007665725C5372635C73746D333266317858
:10437000785F68616C5F74696D5F65782E630000BB
:0443800020000020F9
:08438400F934000831010008C2
:04438C000D01000817
:10439000F40100000AD7A33CFFFFFFFFFFFFFFFF70
:1043A0000024F400010000001000000000000000E4
:1043B000000000000C03002074030020DC03002038
:1043C00000000000000000000000000000000000ED
:1043D00000000000000000000000000000000000DD
:1043E00000000000000000000000000000000000CD
:1043F00000000000000000000000000000000000BD
:1044000000000000000000000000000000000000AC
:10441000000000000000000000000000000000009C
:10442000000000000000000000000000000000008C
:10443000000000000000000000000000000000007C
:10444000000000000000000000000000000000006C
:10445000000000000000000001000000000000005B
:104460000E33CDAB34126DE6ECDE05000B00000020
:10447000000000000000000000000000000000003C
:10448000000000000000000000000000000000002C
:10449000000000000000000000000000000000001C
:1044A000000000000000000000000000000000000C
:0C47D00000000000000000005405002064
:040000050800196D69
:00000001FF
