:020000040800F2
:1000000000500020C50B0008A50A0008A70A000838
:10001000A90A0008AB0A0008AD0A000800000000A9
:10002000000000000000000000000000AF0A00080F
:10003000B10A000800000000B30A0008B50A000871
:100040000D0C00080D0C00080D0C00080D0C00082C
:100050000D0C00080D0C00080D0C00080D0C00081C
:100060000D0C00080D0C00080D0C00080D0C00080C
:100070000D0C00080D0C00080D0C00080D0C0008FC
:100080000D0C00080D0C00080D0C00080D0C0008EC
:100090000D0C00080D0C00080D0C00080D0C0008DC
:1000A000BD0A0008CD0A0008DD0A00080D0C000892
:1000B0000D0C00080D0C00080D0C00080D0C0008BC
:1000C0000D0C00080D0C00080D0C00080D0C0008AC
:1000D0000D0C00080D0C00080D0C00080D0C00089C
:1000E0000D0C00080D0C00080D0C000800000000AD
:1000F0000000000000000000000000000000000000
:0C01000000000000000000005FF808F1A3
:10010C0010B5054C237833B9044B13B10448AFF345
:10011C0000800123237010BD3C040020000000006F
:10012C00501C000808B5034B1BB103490348AFF33F
:10013C00008008BD0000000040040020501C000896
:10014C0038B500224FF48051534800F03EFF4FF475
:10015C008071524800F032FF002800F09880002493
:10016C004FF400714D4800F029FF00B902244FF400
:10017C0080614A4800F022FF00B903244FF400616B
:10018C00464800F01BFF00B90424434D01224FF4F4
:10019C008051284600F019FF00224FF400512846E8
:1001AC0000F013FF4FF480713C4800F007FF00B9DA
:1001BC0005244FF40071394800F000FF00B9062403
:1001CC004FF48061354800F0F9FE00B907244FF474
:1001DC000061324800F0F2FE00B908242E4D0122D5
:1001EC004FF40051284600F0F0FE00224FF48041FD
:1001FC00284600F0EAFE4FF48071284800F0DEFE3D
:10020C0000B909244FF40071244800F0D7FE00B95E
:10021C000A244FF48061214800F0D0FE00B90B2471
:10022C004FF400611D4800F0C9FE00B90C241A4DB2
:10023C0001224FF48041284600F0C7FE00224FF403
:10024C000041284600F0C1FE4FF48071134800F0C5
:10025C00B5FE00B90D244FF40071104800F0AEFE4D
:10026C0000B90E244FF480610C4800F0A7FE00B9D1
:10027C000F244FF40061094800F0A0FE48B10122A0
:10028C004FF40041044800F0A0FE204638BD012484
:10029C0066E71024F3E700BF000C014000080140A2
:1002AC00014B1878704700BF5804002038B5444CF7
:1002BC00444D2B782370FFF743FF28702378012BD4
:1002CC001ED0022B22D0032B26D0042B2AD0052B98
:1002DC002ED0062B32D0072B36D0082B3AD0092B38
:1002EC003ED00A2B42D00B2B46D00C2B4AD00D2BD8
:1002FC004ED00E2B52D00F2B56D0102B5AD038BDBF
:10030C000028DED1304A01211170DAE70028DAD159
:10031C002D4A02211170D6E70028D6D12A4A032192
:10032C001170D2E70028D2D1274A04211170CEE7F0
:10033C000028CED1244A05211170CAE70028CAD161
:10034C00214A06211170C6E70028C6D11E4A072192
:10035C001170C2E70028C2D11B4A08211170BEE7F8
:10036C000028BED1184A09211170BAE70028BAD169
:10037C00154A0A211170B6E70028B6D1124A0B2192
:10038C001170B2E70028B2D10F4A0C211170AEE700
:10039C000028AED10C4A0D211170AAE70028AAD171
:1003AC00094A0E211170A6E70028A6D1064A0F2192
:1003BC001170A2E70028A2D1034B10221A709EE7FD
:1003CC00590400205A0400205804002008B5034B9F
:1003DC00834200D008BDFFF769FFFBE75C040020F7
:1003EC0010B5044600F0E8F9782000F027FA00F088
:1003FC000BFA402000F022FA00F006FA204600F03A
:10040C001DFA00F001FA00F0EBF910BD10B504462E
:10041C0000F0D2F9782000F011FA00F0F5F9002084
:10042C0000F00CFA00F0F0F9204600F007FA00F0AA
:10043C00EBF900F0D5F910BD08B5012902D0FFF792
:10044C00E5FF08BDFFF7CCFFFBE710B50446A1F1B3
:10045C0050000021C0B2FFF7EFFF2009002140F04F
:10046C001000FFF7E9FF002104F00F00FFF7E4FF95
:10047C0010BD0000F8B507460E46203AD5B2102B39
:10048C0005D0062B26D0FFF7E0FF00243FE0FFF756
:10049C00DCFF002408E004EB05130121284AD05CA2
:1004AC00FFF7CAFF0134E4B2072CF4D9711CC9B2AE
:1004BC003846FFF7CAFF002409E004EB05130833A4
:1004CC0001211F4AD05CFFF7B7FF0134E4B2072CBF
:1004DC00F3D933E0FFF7B9FF00240AE005EB45033D
:1004EC00184A02EB43030121185DFFF7A5FF013405
:1004FC00E4B2052CF2D921E004EB0513104AD05CD0
:10050C00C0430121C0B2FFF797FF0134E4B2072CBE
:10051C00F2D9711CC9B23846FFF797FF00240BE0E3
:10052C0004EB05130833064AD05CC0430121C0B26A
:10053C00FFF782FF0134E4B2072CF1D9F8BD00BFFC
:10054C008C1E0008681C00082DE9F04104460E467C
:10055C0017469846002501E00135EDB27A5D62B18F
:10056C00434631462046FFF785FF0834E4B2782C29
:10057C00F2D90236F6B20024EEE7BDE8F08102466D
:10058C00012002E002FB00F019464B1EDBB20029F1
:10059C00F8D170472DE9F8438146884617461E4628
:1005AC009DF8205000241DE0680804FB00F0C0B248
:1005BC000CF1300C48442B465FFA8CF24146C0B229
:1005CC00FFF758FF0CE005FB04F0C0B20CF1300C47
:1005DC0048442B465FFA8CF24146C0B2FFF74AFF03
:1005EC000134E4B2B44226D2311BC9B20139C9B2CA
:1005FC000A20FFF7C4FFB7FBF0F0104AA2FB003C47
:10060C004FEADC0C0CEB8C0CA0EB4C0C5FFA8CFC6A
:10061C00102DC9D0062DD6D0680804FB00F0C0B24E
:10062C000CF1300C48442B465FFA8CF24146C0B2B8
:10063C00FFF720FFD4E7BDE8F88300BFCDCCCCCCCE
:10064C0038B500250AE001210020FFF7F5FE013442
:10065C00E4B214F0800FF6D00135EDB2072D05D8B9
:10066C0029460020FFF7F1FE0024F2E738BD08B55B
:10067C000021AE20FFF7E0FE00210846FFF7DCFE6C
:10068C0000211020FFF7D8FE00214020FFF7D4FEF8
:10069C000021B020FFF7D0FE00218120FFF7CCFE17
:1006AC000021FF20FFF7C8FE0021A120FFF7C4FEA8
:1006BC000021C820FFF7C0FE0021A620FFF7BCFEDA
:1006CC000021A820FFF7B8FE00213F20FFF7B4FE61
:1006DC000021D320FFF7B0FE00210846FFF7ACFE47
:1006EC000021D520FFF7A8FE00218020FFF7A4FEF3
:1006FC000021D820FFF7A0FE00210520FFF79CFE6B
:10070C000021D920FFF798FE0021F120FFF794FE7D
:10071C000021DA20FFF790FE00211220FFF78CFE5B
:10072C000021DB20FFF788FE00213020FFF784FE3C
:10073C0000218D20FFF780FE00211420FFF77CFEA6
:10074C000021AF20FFF778FEFFF77AFF08BD2A23C0
:10075C0000BF1A46013B002AFAD1704708B530B9E0
:10076C0000224FF48071054800F02FFC08BD0122D7
:10077C004FF48071014800F028FCF7E7000C0140B1
:10078C0008B530B900224FF40071054800F01DFC8B
:10079C0008BD01224FF40071014800F016FCF7E788
:1007AC00000C014008B54FF40071024800F006FC43
:1007BC0008BD00BF000C014008B50120FFF7E0FFA9
:1007CC000120FFF7CBFFFFF7C2FF0020FFF7D8FF98
:1007DC00FFF7BDFF0020FFF7C1FFFFF7B8FF08BD13
:1007EC0008B50020FFF7CCFF0020FFF7B7FFFFF79D
:1007FC00AEFF0120FFF7B2FFFFF7A9FF0120FFF7C3
:10080C00BFFFFFF7A4FF08BD38B50120FFF7B8FF05
:10081C000120FFF7A3FF0024FFF7C4FF054638B102
:10082C000134E4B2FA2CF7D9FFF7DAFF012503E023
:10083C00FFF794FFFFF78BFF284638BD38B5044609
:10084C0008220FE00020FFF79BFF6400E4B2FFF7E3
:10085C007EFF0120FFF782FFFFF779FF0020FFF7F3
:10086C007DFF2A46531EDDB232B114F0800FE9D061
:10087C000120FFF785FFE8E738BD00002DE9F041C6
:10088C0088B000240494059406940794334B9A6919
:10089C0042F010029A619A6902F010020092009ADA
:1008AC009A6942F020029A619A6902F02002019240
:1008BC00019A9A6942F008029A619A6902F0080258
:1008CC000292029A9A6942F004029A619B6903F0BF
:1008DC0004030393039BDFF8888022464FF40051F6
:1008EC00404600F072FB1F4E22464FF473413046D7
:1008FC0000F06BFB4FF4005304930125059506940F
:10090C000227079704A9404600F046FA4FF47043BB
:10091C00049305950695079704A9304600F03CFA18
:10092C004FF41F4304930594069504A90E4800F058
:10093C0033FA082304930594069504A9304600F075
:10094C002BFA4FF44073049305950694079704A96A
:10095C00304600F021FA08B0BDE8F08100100240EA
:10096C0000100140000C01400008014072B6FEE787
:10097C0000B591B02822002106A801F0A1F80023AF
:10098C0001930293039304930593012206924FF46F
:10099C00803307930A9202220D920E934FF4E013C8
:1009AC000F9306A800F036FB80B90F2301930221A8
:1009BC000291002303934FF480620492059301A8E3
:1009CC0000F068FD20B911B05DF804FBFFF7CEFF15
:1009DC00FFF7CCFFF0B583B0002500F039F9FFF735
:1009EC00C7FFFFF74BFF00F07DF8174800F036FE0D
:1009FC00FFF73DFE1023154A29462846FFF7A4FDB4
:100A0C002E461CE04FF40051114800F0E4FAFFF7B9
:100A1C0047FC0546741CE4B21027009702233246AB
:100A2C0004210020FFF7B6FD009702232A46194641
:100A3C000020FFF7AFFD642000F02EF92646FFF7EB
:100A4C002FFC0028DED1E5E75C0400207C240008A4
:100A5C000010014082B00E4B9A6942F001029A617B
:100A6C009A6902F001020092009ADA6942F080520F
:100A7C00DA61DB6903F080530193019B054A5368EB
:100A8C0023F0E06343F00073536002B0704700BF83
:100A9C000010024000000140FEE7FEE7FEE7FEE723
:100AAC00FEE770477047704708B500F0E3F808BDE3
:100ABC0008B5024800F00AFE08BD00BF5C04002027
:100ACC0008B5024800F002FE08BD00BF5C0400201F
:100ADC0008B5024800F0FAFD08BD00BF5C04002018
:100AEC007047000000B587B0002302930393049372
:100AFC000593009301931648164A026040F2CF22E8
:100B0C004260836042F20F72C26003614361836191
:100B1C0000F0D4FE90B94FF48053029302A90C4814
:100B2C0000F004FF68B9002300930193694608485C
:100B3C0000F06AFF40B907B05DF804FBFFF716FF41
:100B4C00E9E7FFF713FFEEE7FFF710FFF3E700BF4E
:100B5C005C040020002C01400268164B9A4200D025
:100B6C00704700B583B003F564439A6942F40062A0
:100B7C009A619B6903F400630193019B0022114667
:100B8C00182000F0AFF8182000F0E4F8002211460D
:100B9C00192000F0A7F8192000F0DCF8002211460B
:100BAC001A2000F09FF81A2000F0D4F803B05DF87A
:100BBC0004FB00BF002C01400C480D490D4A0023DA
:100BCC0002E0D458C4500433C4188C42F9D30A4AF6
:100BDC000A4C002301E013600432A242FBD3FFF75E
:100BEC007FFF00F049FFFFF7F5FE70470000002083
:100BFC003C040020B82400083C040020AC04002075
:100C0C00FEE7000010B504460E4B18784FF47A73CB
:100C1C00B3FBF0F30C4A1068B0FBF3F000F0A8F84B
:100C2C0068B90F2C01D901200AE0002221464FF0AF
:100C3C00FF3000F057F8054B1C60002000E001204D
:100C4C0010BD00BF040000200000002008000020A0
:100C5C0008B5074A136843F010031360032000F033
:100C6C002FF80F20FFF7CEFFFFF7F4FE002008BD92
:100C7C0000200240034A1168034B1B780B4413609D
:100C8C00704700BFA404002004000020014B18682A
:100C9C00704700BFA404002038B50446FFF7F6FFE8
:100CAC000546B4F1FF3F02D0044B1B781C44FFF700
:100CBC00EDFF401BA042FAD338BD00BF040000205A
:100CCC00074AD36823F4E0631B041B0C000200F4F6
:100CDC00E060034343F0BF6343F40033D3607047D9
:100CEC0000ED00E000B5194BDB68C3F30223C3F140
:100CFC00070CBCF1040F28BF4FF0040C03F1040ED9
:100D0C00BEF1060F18D9033B4FF0FF3E0EFA0CFC58
:100D1C0021EA0C0199400EFA03F322EA030319436A
:100D2C0000280BDB0901C9B200F1604000F56140FD
:100D3C0080F800135DF804FB0023E5E700F00F00DA
:100D4C000901C9B2024B1954F4E700BF00ED00E0F1
:100D5C0014ED00E0002807DB00F01F02400901231E
:100D6C009340024A42F82030704700BF00E100E097
:100D7C000138B0F1807F0BD24FF0E0235861054A67
:100D8C00F02182F823100020986107221A61704725
:100D9C000120704700ED00E070B582B00024A4463D
:100DAC00A6E0804DAA4210D007D97F4DAA420CD0A4
:100DBC0005F58035AA4208D013E0A5F58015AA42A6
:100DCC0003D005F57025AA4207D18A68002A58D0AD
:100DDC00012A51D04361082403E0A5F58015AA42ED
:100DEC00F3D0BEF1FF0F4ED80646BEF1FF0F4CD824
:100DFC004FEA8C0233680F25954023EA050304FA69
:100E0C0002F2134333604B6813F0805F6ED0674B74
:100E1C009A6942F001029A619B6903F00103019304
:100E2C00019B4FEA9C02951C614B53F825600CF01A
:100E3C0003039D000F23AB4026EA03065D4B98424B
:100E4C0029D003F58063984200F08E8003F580630F
:100E5C00984200F08B8003F58063984219D00423EC
:100E6C001AE0CC68BDE7CC680434BAE7CC68083427
:100E7C00B7E7CC680C34B4E703610824B1E700246D
:100E8C00AFE70424ADE7061DAFE7ACF10802920012
:100E9C00B0E7032300E00023AB4033430232444D60
:100EAC0045F822304B6813F4803F61D0424A1368F6
:100EBC0043EA0E0313604B6813F4003F5ED03E4AC6
:100ECC00536843EA0E0353604B6813F4801F5BD0E6
:100EDC00394A936843EA0E0393604B6813F4001F7E
:100EEC0058D0354AD36843EA0E03D3600CF1010C99
:100EFC000A6832FA0CF353D0012303FA0CF302EA1A
:100F0C00030E33EA0202F1D14A68122A3FF649AFC6
:100F1C00122A3FF666AF01A555F822F0D70D00084E
:100F2C006F0E0008790E00088B0E0008EF0D0008FC
:100F3C00EF0D0008EF0D0008EF0D0008EF0D000895
:100F4C00EF0D0008EF0D0008EF0D0008EF0D000885
:100F5C00EF0D0008EF0D0008EF0D0008EF0D000875
:100F6C00730E00087F0E0008012395E7022393E718
:100F7C00114A136823EA0E0313609CE70E4A536868
:100F8C0023EA0E0353609FE70B4A936823EA0E0390
:100F9C009360A2E7084AD36823EA0E03D360A5E75F
:100FAC0002B070BD00002210000031100010024091
:100FBC000000014000080140000401408368194210
:100FCC0001D001207047002070470AB101617047C1
:100FDC00090401617047C36801EA030221EA0301B5
:100FEC0041EA02410161704782B0084B1B68084A14
:100FFC00A2FB03235B0A00FB03F3019300BF019BDD
:10100C005A1E0192002BF9D102B07047000000204B
:10101C00D34D6210002800F0F18170B582B0044607
:10102C00036813F0010F2CD0994B5B6803F00C0391
:10103C00042B1DD0964B5B6803F00C03082B12D0CD
:10104C006368B3F5803F41D0002B55D103F1804349
:10105C0003F504331A6822F480321A601A6822F4F9
:10106C0080221A6037E08A4B5B6813F4803FE7D02C
:10107C00874B1B6813F4003F03D06368002B00F010
:10108C00BF81236813F0020F75D0814B5B6813F09E
:10109C000C0F5FD07E4B5B6803F00C03082B54D015
:1010AC002369002B00F08A807A4B01221A60FFF72B
:1010BC00EDFD0546764B1B6813F0020F75D1FFF75B
:1010CC00E5FD401B0228F5D903209EE1704A136808
:1010DC0043F480331360636843B3FFF7D7FD0546D1
:1010EC006B4B1B6813F4003FCBD1FFF7CFFD401BBC
:1010FC006428F5D9032088E1B3F5A02F09D0644BFF
:10110C001A6822F480321A601A6822F480221A605B
:10111C00E1E703F18043A3F53C331A6842F48022E3
:10112C001A601A6842F480321A60D4E7FFF7AEFDF9
:10113C000546574B1B6813F4003FA2D0FFF7A6FDE2
:10114C00401B6428F5D903205FE1514B5B6813F415
:10115C00803FA5D14E4B1B6813F0020F03D02369BF
:10116C00012B40F04F814A4A136823F0F803616960
:10117C0043EAC1031360236813F0080F33D0A3694B
:10118C00002B5CD0434B0122C3F88024FFF77EFD7B
:10119C0005463F4B5B6A13F0020F21D1FFF776FD3A
:1011AC00401B0228F5D903202FE1394A136823F09C
:1011BC00F803616943EAC1031360DCE7354B002295
:1011CC001A60FFF763FD0546314B1B6813F0020FE5
:1011DC00D1D0FFF75BFD401B0228F5D9032014E1A9
:1011EC000120FFF701FF236813F0040F00F0968035
:1011FC00274BDB6913F0805F34D1254BDA6942F061
:10120C008052DA61DB6903F080530193019B012565
:10121C00214B1B6813F4807F26D0E368012B3DD053
:10122C00002B53D103F1804303F504331A6A22F0E7
:10123C0001021A621A6A22F004021A6233E0154B98
:10124C000022C3F88024FFF721FD0546104B5B6A92
:10125C0013F0020FC7D0FFF719FD401B0228F5D978
:10126C000320D2E00025D3E70B4A136843F48073C4
:10127C001360FFF70BFD0646074B1B6813F4807FCA
:10128C00CBD1FFF703FD801B6428F5D90320BCE00C
:10129C000010024000004242007000405F4A136A96
:1012AC0043F001031362E36833B3FFF7EFFC064628
:1012BC005A4B1B6A13F0020F2FD1FFF7E7FC801B70
:1012CC0041F288339842F3D903209EE0052B09D0D4
:1012DC00524B1A6A22F001021A621A6A22F00402B4
:1012EC001A62E0E74D4B1A6A42F004021A621A6A5B
:1012FC0042F001021A62D6E7FFF7C8FC0646474BDC
:10130C001B6A13F0020F08D0FFF7C0FC801B41F2E0
:10131C0088339842F3D9032077E0E5B9E369002BD1
:10132C0072D03E4A526802F00C02082A56D0022BA8
:10133C0017D03B4B00221A66FFF7A8FC0446374B2C
:10134C001B6813F0007F47D0FFF7A0FC001B02289E
:10135C00F5D9032059E0314AD36923F08053D36186
:10136C00DCE72F4B00221A66FFF790FC05462B4B4F
:10137C001B6813F0007F06D0FFF788FC401B022887
:10138C00F5D9032041E0236AB3F5803F1AD02349F5
:10139C004B6823F47413226A606A024313434B6054
:1013AC001F4B01221A66FFF771FC04461B4B1B688E
:1013BC0013F0007F0ED1FFF769FC001B0228F5D952
:1013CC00032022E0154A536823F40033A1680B4331
:1013DC005360DCE7002018E0002016E0012B16D04B
:1013EC000E4B5B6803F48031226A914211D103F4F5
:1013FC007013626A93420ED1002006E00120704700
:10140C00012002E0012000E0002002B070BD0120AC
:10141C00FBE70120F9E70120F7E700BF00100240CD
:10142C000000424286B0174B0FCB0DF1180C0CE9A3
:10143C000F0040F20123ADF80430134B5B6803F04E
:10144C000C02082A02D0114806B07047C3F383423D
:10145C0018326A4412F8100C13F4803F0DD00A4B6A
:10146C005B68C3F3404318336B4413F8143C074ACE
:10147C0002FB00F0B0FBF3F0E6E7054B03FB00F0DA
:10148C00E2E700BF942400080010024000127A002A
:10149C0000093D00002800F0A08070B50D46044600
:1014AC00524B1B6803F007038B420BD24F4A136855
:1014BC0023F007030B431360136803F007038B42FD
:1014CC0040F08D80236813F0020F17D013F0040F37
:1014DC0004D0474A536843F4E0635360236813F025
:1014EC00080F04D0424A536843F460535360404A97
:1014FC00536823F0F003A1680B435360236813F087
:10150C00010F31D06368012B20D0022B25D0384A33
:10151C00126812F0020F64D035494A6822F00302B7
:10152C0013434B60FFF7B2FB0646314B5B6803F08D
:10153C000C036268B3EB820F16D0FFF7A7FB801B7E
:10154C0041F288339842F0D9032045E0284A1268CA
:10155C0012F4003FE0D101203EE0254A126812F05F
:10156C00007FD9D1012037E0204B1B6803F0070323
:10157C00AB420AD91D4A136823F007032B431360AF
:10158C00136803F00703AB422DD1236813F0040F4B
:10159C0006D0174A536823F4E063E1680B435360A9
:1015AC00236813F0080F07D0114A536823F46053D3
:1015BC00216943EAC1035360FFF734FF0C4B5B68AE
:1015CC00C3F303130B4AD35CD8400B4B18600B4B83
:1015DC001868FFF717FB002070BD01207047012031
:1015EC00FAE70120F8E70120F6E700BF00200240EF
:1015FC000010024084240008000000200800002095
:10160C0010B4036A046A24F001040462846924F0AF
:10161C00F00C4CEA021223F00A030B4382610362C2
:10162C0010BC704710B4046A24F01004046284697E
:10163C00036A24F4704C4CEA023223F0A00343EA10
:10164C0001138261036210BC7047836823F070033E
:10165C000B4343F0070383607047000090F83D3064
:10166C00DBB2012B27D1022380F83D300268D3680E
:10167C0043F00103D3600368114A934210D0B3F1D5
:10168C00804F0DD0A2F59432934209D002F58062BE
:10169C00934205D01A6842F001021A60002070478C
:1016AC009A6802F00702062A07D01A6842F0010273
:1016BC001A6000207047012070470020704700BF5F
:1016CC00002C0140704770477047704710B50446B6
:1016DC0003681A6912F0020F11D0DA6812F0020FC7
:1016EC000DD06FF002021A610123037703689B6926
:1016FC0013F0030F70D0FFF7E6FF00232377236866
:10170C001A6912F0040F12D0DA6812F0040F0ED01E
:10171C006FF004021A610223237723689B6913F488
:10172C00407F5FD02046FFF7CEFF0023237723684E
:10173C001A6912F0080F12D0DA6812F0080F0ED0E6
:10174C006FF008021A61042323772368DB6913F016
:10175C00030F4ED02046FFF7B6FF002323772368F4
:10176C001A6912F0100F12D0DA6812F0100F0ED0A6
:10177C006FF010021A61082323772368DB6913F4D6
:10178C00407F3DD02046FFF79EFF00232377236840
:10179C001A6912F0010F03D0DA6812F0010F36D17A
:1017AC0023681A6912F0800F03D0DA6812F0800FE8
:1017BC0034D123681A6912F0400F03D0DA6812F0A2
:1017CC00400F32D123681A6912F0200F03D0DA6867
:1017DC0012F0200F30D110BDFFF774FF2046FFF739
:1017EC0073FF8AE72046FFF76DFF2046FFF76CFF7B
:1017FC009BE72046FFF766FF2046FFF765FFACE747
:10180C002046FFF75FFF2046FFF75EFFBDE76FF056
:10181C0001021A612046FEF7D9FDC1E76FF0800284
:10182C001A61204600F027F9C3E76FF040021A61F5
:10183C002046FFF74AFFC5E76FF020021A612046E9
:10184C0000F018F9C7E7000003681B4A90420AD061
:10185C00B0F1804F07D0A2F59432904203D002F53C
:10186C008062904203D123F070034A681343124AFA
:10187C0090420AD0B0F1804F07D0A2F5943290423A
:10188C0003D002F58062904203D123F44073CA68FE
:10189C00134323F080034A69134303608B68C362CC
:1018AC000B688362044B984202D00123436170475A
:1018BC000B690363F9E700BF002C014040B310B57E
:1018CC00044690F83D30F3B1022384F83D302146B4
:1018DC0051F8040BFFF7B8FF012384F8463084F865
:1018EC003E3084F83F3084F8403084F8413084F83E
:1018FC00423084F8433084F8443084F8453084F81E
:10190C003D30002010BD80F83C30FFF725F9DBE7B7
:10191C000120704710B4846824F47F4C42EA0322FF
:10192C000A4342EA0C02826010BC704790F83C30CB
:10193C00012B66D010B50446012380F83C300223FD
:10194C0080F83D300268936823F47F4323F07703DB
:10195C0093600B68602B40D022D8402B47D00BD91A
:10196C00502B0ED1CA6849680068FFF749FE502118
:10197C002068FFF76AFE04E0202B0CD008D9302B2E
:10198C0009D0012384F83D30002084F83C0010BDC0
:10199C000BB1102BF5D119462068FFF756FEF0E776
:1019AC00702B0ED0B3F5005FEBD1CB684A68896819
:1019BC000068FFF7AFFF2268936843F4804393609D
:1019CC00DFE7CB684A6889680068FFF7A3FF2268E5
:1019DC00936843F077039360D3E7CA68496800685B
:1019EC00FFF720FE60212068FFF72FFEC9E7CA68C9
:1019FC0049680068FFF704FE40212068FFF725FEC8
:101A0C00BFE702207047000090F83C30012B2CD02F
:101A1C0010B4012380F83C30022380F83D30036879
:101A2C005A689C6822F0700C0A6842EA0C025A60F0
:101A3C0003680F4A93420AD0B3F1804F07D0A2F546
:101A4C009432934203D002F58062934204D124F085
:101A5C0080044A6814439C60012380F83D300023C5
:101A6C0080F83C30184610BC70470220704700BF0D
:101A7C00002C01407047704770B50D4E0D4D761B14
:101A8C00B61006D0002455F8043B01349847A64202
:101A9C00F9D1094E094D00F0D5F8761BB61006D0D9
:101AAC00002455F8043B01349847A642F9D170BD87
:101ABC00AC240008AC240008B4240008AC240008B2
:101ACC00830730B548D0541E002A3FD00346CAB213
:101ADC0001E0013C3AD303F8012B9D07F9D1032C0B
:101AEC002DD9CDB245EA05250F2C45EA054536D949
:101AFC00A4F1100222F00F0C03F1200EE6444FEA81
:101B0C00121C03F1100242E9045542E9025510324D
:101B1C007245F8D10CF1010214F00C0F03EB021218
:101B2C0004F00F0C13D0ACF1040323F003030433C3
:101B3C00134442F8045B9342FBD10CF003042CB128
:101B4C00CAB21C4403F8012B9C42FBD130BD644645
:101B5C001346002CF4D1F9E703461446BFE71A46A6
:101B6C00A446E0E7024B13B1024800F005B87047F9
:101B7C0000000000911B0008002301461A4618467D
:101B8C0000F01AB838B5084B084D5B1B9C1007D0F9
:101B9C00043B1D44013C55F804399847002CF9D1FD
:101BAC00BDE8384000F054B8B8240008B42400084C
:101BBC00704700BF704700BF2DE9F047DFF87CA0ED
:101BCC000646DAF8000098460F469146FFF7F0FFFC
:101BDC001B4B1B68D3F8484124B365681F2D26DCCA
:101BEC005EB96B1C0235DAF80000636044F82570AE
:101BFC00FFF7E0FF0020BDE8F087012304EB85012F
:101C0C00C1F88890D4F88821AB401A43022EC4F84E
:101C1C008821C1F80881E4D1D4F88C211343C4F88D
:101C2C008C31DEE703F5A674C3F84841D5E7DAF842
:101C3C000000FFF7BFFF4FF0FF30DCE73804002057
:101C4C00A8240008F8B500BFF8BC08BC9E46704735
:0C1C5C00F8B500BFF8BC08BC9E467047FD
:101C68000000000000000000002F00000000070036
:101C7800070000147F147F1400242A7F2A122313DC
:101C88000864620000364955225000000503000030
:101C980000001C224100000041221C000014083EE4
:101CA80008140008083E0808000000A060000008AA
:101CB80008080808000060600000002010080402FE
:101CC800003E5149453E0000427F400000426151BC
:101CD8004946002141454B31001814127F10002756
:101CE80045454539003C4A49493000017109050319
:101CF80000364949493600064949291E000036364A
:101D080000000000563600000008142241000014AC
:101D18001414141400004122140800020151090689
:101D280000324959513E007C1211127C007F49490A
:101D38004936003E41414122007F4141221C007F3B
:101D480049494941007F09090901003E4149497A49
:101D5800007F0808087F0000417F410000204041C3
:101D68003F01007F08142241007F40404040007F2F
:101D7800020C027F007F0408107F003E4141413E73
:101D8800007F09090906003E4151215E007F0919BB
:101D980029460046494949310001017F0101003FB8
:101DA8004040403F001F2040201F003F4038403F38
:101DB800006314081463000708700807006151499C
:101DC800454300007F41410000552A552A5500002F
:101DD80041417F00000402010204004040404040AD
:101DE800000001020400002054545478007F484445
:101DF800443800384444442000384444487F00387C
:101E08005454541800087E0901020018A4A4A47CA4
:101E1800007F080404780000447D4000004080846E
:101E28007D00007F102844000000417F4000007CB6
:101E380004180478007C08040478003844444438C2
:101E480000FC242424180018242418FC007C08040E
:101E5800040800485454542000043F444020003CE7
:101E68004040207C001C2040201C003C4030403C6E
:101E7800004428102844001CA0A0A07C00446454FE
:101E88004C440000000000000000000000000000BA
:101E980000000000000000F800000000000000330F
:101EA8003000000000100C06100C060000000000B6
:101EB8000000000040C07840C0784000043F04049F
:101EC8003F040400007088FC08300000001820FF60
:101ED800211E0000F008F000E018000000211C039B
:101EE8001E211E0000F00888700000001E21232417
:101EF8001927211010160E00000000000000000035
:101F080000000000000000E01804020000000007C4
:101F18001820400000020418E000000000402018CB
:101F280007000000404080F0804040000202010F9E
:101F380001020200000000F0000000000101011F82
:101F480001010100000000000000000080B07000E6
:101F58000000000000000000000000000001010176
:101F68000101010100000000000000000030300005
:101F780000000000000000008060180400601806DF
:101F88000100000000E010080810E000000F102019
:101F980020100F00001010F8000000000020203F63
:101FA80020200000007008080888700000302824ED
:101FB800222130000030088888483000001820208E
:101FC80020110E000000C02010F8000000070424B3
:101FD800243F240000F808888808080000192120F8
:101FE80020110E0000E0108888180000000F112052
:101FF80020110E0000380808C83808000000003F0B
:10200800000000000070880808887000001C222169
:1020180021221C0000E010080810E0000000312216
:1020280022110F00000000C0C000000000000030B6
:102038003000000000000080000000000000806008
:102048000000000000008040201008000001020489
:102058000810200040404040404040000404040470
:10206800040404000008102040800000002010082C
:1020780004020100007048080808F0000000003061
:1020880036010000C030C828E810E00007182724EF
:1020980023140B000000C038E0000000203C23029D
:1020A8000227382008F8888888700000203F202000
:1020B80020110E00C0300808080838000718202032
:1020C8002010080008F808080810E000203F202029
:1020D80020100F0008F88888E8081000203F20200A
:1020E8002320180008F88888E8081000203F2000FE
:1020F80003000000C0300808083800000718202036
:10210800221E020008F808000008F808203F2101F4
:1021180001213F20000808F8080800000020203F9F
:102128002020000000000808F8080800C08080800F
:102138007F00000008F888C028180800203F200108
:102148002638200008F8080000000000203F202062
:102158002020300008F8F800F8F80800203F003F79
:10216800003F200008F830C00008F808203F200091
:1021780007183F00E01008080810E0000F102020A2
:1021880020100F0008F808080808F000203F210177
:1021980001010000E01008080810E0000F182424CE
:1021A80038504F0008F8888888887000203F200041
:1021B800030C3020007088080808380000382021F7
:1021C80021221C00180808F8080818000000203F01
:1021D8002000000008F808000008F808001F202068
:1021E80020201F000878880000C838080000073839
:1021F8000E010000F80800F80008F800033C07008A
:10220800073C0300081868808068180820302C03F1
:10221800032C30200838C800C83808000000203FC8
:102228002000000010080808C838080020382621B7
:1022380020201800000000FE020202000000007FBB
:1022480040404000000C30C00000000000000001C9
:102258000638C00000020202FE00000000404040B4
:102268007F000000000004020202040000000000D9
:102278000000000000000000000000008080808056
:10228800808080800002020400000000000000003E
:1022980000000000000080808080000000192422D7
:1022A80022223F2008F8008080000000003F112013
:1022B80020110E000000008080800000000E112018
:1022C80020201100000000808088F800000E1120F6
:1022D80020103F200000808080800000001F222204
:1022E80022221300008080F0888888180020203F70
:1022F800202000000000808080808000006B949483
:102308009493600008F8008080800000203F21003E
:1023180000203F2000809898000000000020203F07
:1023280020200000000000809898000000C08080F5
:10233800807F000008F8000080808000203F240291
:102348002D302000000808F8000000000020203F81
:10235800202000008080808080808000203F200036
:102368003F20003F8080008080800000203F2100C7
:1023780000203F200000808080800000001F202077
:1023880020201F00808000808000000080FFA120A6
:1023980020110E000000008080808000000E1120B7
:1023A80020A0FF80808080008080800020203F2146
:1023B80020000100000080808080800000332424F9
:1023C80024241900008080E0808000000000001FA5
:1023D800202000008080000000808000001F202056
:1023E80020103F20808080000080808000010E3017
:1023F8000806010080800080008080800F300C0378
:102408000C300F0000808000808080000020312E7A
:102418000E312000808080000080808080818E7056
:102428001806010000808080808080000021302C08
:102438002221300000000000807C02020000000021
:10244800003F404000000000FF00000000000000C6
:10245800FF0000000002027C800000000040403FB6
:102468000000000000060101020204040000000050
:102478000000000048656C6C6F0000000000000060
:10248800000000000102030406070809020304050E
:10249800060708090A0B0C0D0E0F101000000000AB
:0424A8001000002000
:0824AC00711B0008310100085A
:0424B4000D0100080E
:1024B8000024F400010000001000000000000000EB
:1024C80000000000FC02002064030020CC03002070
:1024D80000000000000000000000000000000000F4
:1024E80000000000000000000000000000000000E4
:1024F80000000000000000000000000000000000D4
:1025080000000000000000000000000000000000C3
:1025180000000000000000000000000000000000B3
:1025280000000000000000000000000000000000A3
:102538000000000000000000000000000000000093
:102548000000000000000000000000000000000083
:102558000000000000000000000000000000000073
:102568000000000000000000010000000000000062
:102578000E33CDAB34126DE6ECDE05000B00000027
:102588000000000000000000000000000000000043
:102598000000000000000000000000000000000033
:1025A8000000000000000000000000000000000023
:1025B8000000000000000000000000000000000013
:0C28E8000000000000000000A804002018
:0400000508000BC51F
:00000001FF
